{
    "_format": "hh-sol-artifact-1",
    "contractName": "DaiToken",
    "sourceName": "contracts/DaiToken.sol",
    "abi": [
        {
            "inputs": [
                {
                    "internalType": "contract TimeLine",
                    "name": "_timeLine",
                    "type": "address"
                }
            ],
            "stateMutability": "nonpayable",
            "type": "constructor"
        },
        {
            "anonymous": false,
            "inputs": [
                {
                    "indexed": false,
                    "internalType": "address",
                    "name": "account",
                    "type": "address"
                },
                {
                    "indexed": false,
                    "internalType": "address",
                    "name": "token",
                    "type": "address"
                },
                {
                    "indexed": false,
                    "internalType": "uint256",
                    "name": "amount",
                    "type": "uint256"
                },
                {
                    "indexed": false,
                    "internalType": "uint256",
                    "name": "rate",
                    "type": "uint256"
                }
            ],
            "name": "TokenPurchased",
            "type": "event"
        },
        {
            "anonymous": false,
            "inputs": [
                {
                    "indexed": false,
                    "internalType": "address",
                    "name": "account",
                    "type": "address"
                },
                {
                    "indexed": false,
                    "internalType": "address",
                    "name": "token",
                    "type": "address"
                },
                {
                    "indexed": false,
                    "internalType": "uint256",
                    "name": "amount",
                    "type": "uint256"
                },
                {
                    "indexed": false,
                    "internalType": "uint256",
                    "name": "rate",
                    "type": "uint256"
                }
            ],
            "name": "TokenSold",
            "type": "event"
        },
        {
            "inputs": [],
            "name": "buytimeline",
            "outputs": [],
            "stateMutability": "payable",
            "type": "function"
        },
        {
            "inputs": [],
            "name": "decimals",
            "outputs": [
                {
                    "internalType": "uint8",
                    "name": "",
                    "type": "uint8"
                }
            ],
            "stateMutability": "view",
            "type": "function"
        },
        {
            "inputs": [],
            "name": "name",
            "outputs": [
                {
                    "internalType": "string",
                    "name": "",
                    "type": "string"
                }
            ],
            "stateMutability": "view",
            "type": "function"
        },
        {
            "inputs": [],
            "name": "owner",
            "outputs": [
                {
                    "internalType": "address",
                    "name": "",
                    "type": "address"
                }
            ],
            "stateMutability": "view",
            "type": "function"
        },
        {
            "inputs": [],
            "name": "rate",
            "outputs": [
                {
                    "internalType": "uint256",
                    "name": "",
                    "type": "uint256"
                }
            ],
            "stateMutability": "view",
            "type": "function"
        },
        {
            "inputs": [
                {
                    "internalType": "uint256",
                    "name": "_amount",
                    "type": "uint256"
                }
            ],
            "name": "selltimeline",
            "outputs": [],
            "stateMutability": "payable",
            "type": "function"
        },
        {
            "inputs": [],
            "name": "symbol",
            "outputs": [
                {
                    "internalType": "string",
                    "name": "",
                    "type": "string"
                }
            ],
            "stateMutability": "view",
            "type": "function"
        },
        {
            "inputs": [],
            "name": "timeLine",
            "outputs": [
                {
                    "internalType": "contract TimeLine",
                    "name": "",
                    "type": "address"
                }
            ],
            "stateMutability": "view",
            "type": "function"
        }
    ],
    "bytecode": "0x60806040526040518060400160405280600e81526020017f4d6f636b2044414920546f6b656e00000000000000000000000000000000000081525060009080519060200190620000519291906200017d565b506040518060400160405280600481526020017f6d44414900000000000000000000000000000000000000000000000000000000815250600190805190602001906200009f9291906200017d565b506012600260006101000a81548160ff021916908360ff160217905550602d600355348015620000ce57600080fd5b5060405162000f3b38038062000f3b8339818101604052810190620000f4919062000244565b33600560006101000a81548173ffffffffffffffffffffffffffffffffffffffff021916908373ffffffffffffffffffffffffffffffffffffffff16021790555080600460006101000a81548173ffffffffffffffffffffffffffffffffffffffff021916908373ffffffffffffffffffffffffffffffffffffffff1602179055505062000337565b8280546200018b90620002b8565b90600052602060002090601f016020900481019282620001af5760008555620001fb565b82601f10620001ca57805160ff1916838001178555620001fb565b82800160010185558215620001fb579182015b82811115620001fa578251825591602001919060010190620001dd565b5b5090506200020a91906200020e565b5090565b5b80821115620002295760008160009055506001016200020f565b5090565b6000815190506200023e816200031d565b92915050565b6000602082840312156200025757600080fd5b600062000267848285016200022d565b91505092915050565b60006200027d8262000298565b9050919050565b6000620002918262000270565b9050919050565b600073ffffffffffffffffffffffffffffffffffffffff82169050919050565b60006002820490506001821680620002d157607f821691505b60208210811415620002e857620002e7620002ee565b5b50919050565b7f4e487b7100000000000000000000000000000000000000000000000000000000600052602260045260246000fd5b620003288162000284565b81146200033457600080fd5b50565b610bf480620003476000396000f3fe60806040526004361061007b5760003560e01c806391436eb71161004e57806391436eb71461012c57806395d89b4114610148578063ee6d84f014610173578063f405d5c41461017d5761007b565b806306fdde03146100805780632c4e722e146100ab578063313ce567146100d65780638da5cb5b14610101575b600080fd5b34801561008c57600080fd5b506100956101a8565b6040516100a29190610915565b60405180910390f35b3480156100b757600080fd5b506100c0610236565b6040516100cd9190610937565b60405180910390f35b3480156100e257600080fd5b506100eb61023c565b6040516100f89190610952565b60405180910390f35b34801561010d57600080fd5b5061011661024f565b604051610123919061083a565b60405180910390f35b61014660048036038101906101419190610773565b610275565b005b34801561015457600080fd5b5061015d61047a565b60405161016a9190610915565b60405180910390f35b61017b610508565b005b34801561018957600080fd5b506101926106e5565b60405161019f91906108fa565b60405180910390f35b600080546101b590610ac0565b80601f01602080910402602001604051908101604052809291908181526020018280546101e190610ac0565b801561022e5780601f106102035761010080835404028352916020019161022e565b820191906000526020600020905b81548152906001019060200180831161021157829003601f168201915b505050505081565b60035481565b600260009054906101000a900460ff1681565b600560009054906101000a900473ffffffffffffffffffffffffffffffffffffffff1681565b80600460009054906101000a900473ffffffffffffffffffffffffffffffffffffffff1673ffffffffffffffffffffffffffffffffffffffff166370a08231336040518263ffffffff1660e01b81526004016102d1919061083a565b60206040518083038186803b1580156102e957600080fd5b505afa1580156102fd573d6000803e3d6000fd5b505050506040513d601f19601f82011682018060405250810190610321919061079c565b101561032c57600080fd5b60006003548261033c9190610989565b9050600460009054906101000a900473ffffffffffffffffffffffffffffffffffffffff1673ffffffffffffffffffffffffffffffffffffffff166323b872dd3330856040518463ffffffff1660e01b815260040161039d93929190610855565b602060405180830381600087803b1580156103b757600080fd5b505af11580156103cb573d6000803e3d6000fd5b505050506040513d601f19601f820116820180604052508101906103ef919061074a565b503373ffffffffffffffffffffffffffffffffffffffff166108fc829081150290604051600060405180830381858888f19350505050158015610436573d6000803e3d6000fd5b507fa8a7473f10e62cf9687e243de1c3ac8b3cbc3dd04b96826beb3a65b59538581433308360035460405161046e949392919061088c565b60405180910390a15050565b6001805461048790610ac0565b80601f01602080910402602001604051908101604052809291908181526020018280546104b390610ac0565b80156105005780601f106104d557610100808354040283529160200191610500565b820191906000526020600020905b8154815290600101906020018083116104e357829003601f168201915b505050505081565b60006003543461051891906109ba565b905080600460009054906101000a900473ffffffffffffffffffffffffffffffffffffffff1673ffffffffffffffffffffffffffffffffffffffff166370a08231306040518263ffffffff1660e01b8152600401610576919061083a565b60206040518083038186803b15801561058e57600080fd5b505afa1580156105a2573d6000803e3d6000fd5b505050506040513d601f19601f820116820180604052508101906105c6919061079c565b10156105d157600080fd5b600460009054906101000a900473ffffffffffffffffffffffffffffffffffffffff1673ffffffffffffffffffffffffffffffffffffffff1663a9059cbb33836040518363ffffffff1660e01b815260040161062e9291906108d1565b602060405180830381600087803b15801561064857600080fd5b505af115801561065c573d6000803e3d6000fd5b505050506040513d601f19601f82011682018060405250810190610680919061074a565b507f8daf503382665d950e449b86172be5222275c90f4ddf69c29fdaa8237a562a6d33600460009054906101000a900473ffffffffffffffffffffffffffffffffffffffff16836003546040516106da949392919061088c565b60405180910390a150565b600460009054906101000a900473ffffffffffffffffffffffffffffffffffffffff1681565b60008151905061071a81610b90565b92915050565b60008135905061072f81610ba7565b92915050565b60008151905061074481610ba7565b92915050565b60006020828403121561075c57600080fd5b600061076a8482850161070b565b91505092915050565b60006020828403121561078557600080fd5b600061079384828501610720565b91505092915050565b6000602082840312156107ae57600080fd5b60006107bc84828501610735565b91505092915050565b6107ce81610a14565b82525050565b6107dd81610a69565b82525050565b60006107ee8261096d565b6107f88185610978565b9350610808818560208601610a8d565b61081181610b7f565b840191505092915050565b61082581610a52565b82525050565b61083481610a5c565b82525050565b600060208201905061084f60008301846107c5565b92915050565b600060608201905061086a60008301866107c5565b61087760208301856107c5565b610884604083018461081c565b949350505050565b60006080820190506108a160008301876107c5565b6108ae60208301866107c5565b6108bb604083018561081c565b6108c8606083018461081c565b95945050505050565b60006040820190506108e660008301856107c5565b6108f3602083018461081c565b9392505050565b600060208201905061090f60008301846107d4565b92915050565b6000602082019050818103600083015261092f81846107e3565b905092915050565b600060208201905061094c600083018461081c565b92915050565b6000602082019050610967600083018461082b565b92915050565b600081519050919050565b600082825260208201905092915050565b600061099482610a52565b915061099f83610a52565b9250826109af576109ae610b21565b5b828204905092915050565b60006109c582610a52565b91506109d083610a52565b9250817fffffffffffffffffffffffffffffffffffffffffffffffffffffffffffffffff0483118215151615610a0957610a08610af2565b5b828202905092915050565b6000610a1f82610a32565b9050919050565b60008115159050919050565b600073ffffffffffffffffffffffffffffffffffffffff82169050919050565b6000819050919050565b600060ff82169050919050565b6000610a7482610a7b565b9050919050565b6000610a8682610a32565b9050919050565b60005b83811015610aab578082015181840152602081019050610a90565b83811115610aba576000848401525b50505050565b60006002820490506001821680610ad857607f821691505b60208210811415610aec57610aeb610b50565b5b50919050565b7f4e487b7100000000000000000000000000000000000000000000000000000000600052601160045260246000fd5b7f4e487b7100000000000000000000000000000000000000000000000000000000600052601260045260246000fd5b7f4e487b7100000000000000000000000000000000000000000000000000000000600052602260045260246000fd5b6000601f19601f8301169050919050565b610b9981610a26565b8114610ba457600080fd5b50565b610bb081610a52565b8114610bbb57600080fd5b5056fea2646970667358221220f7151956ad8d0634f202585a6469ac841eb982cc2e7272569b5c16c885cb879c64736f6c63430008000033",
    "linkReferences": {},
    "deployedLinkReferences": {}
}