{
    "_format": "hh-sol-artifact-1",
    "contractName": "DAO",
    "sourceName": "contracts/DAO.sol",
    "abi": [
        {
            "inputs": [
                {
                    "internalType": "contract TimeLine",
                    "name": "_timeLine",
                    "type": "address"
                }
            ],
            "stateMutability": "nonpayable",
            "type": "constructor"
        },
        {
            "anonymous": false,
            "inputs": [
                {
                    "indexed": false,
                    "internalType": "uint256",
                    "name": "votesUp",
                    "type": "uint256"
                },
                {
                    "indexed": false,
                    "internalType": "uint256",
                    "name": "votesDown",
                    "type": "uint256"
                },
                {
                    "indexed": false,
                    "internalType": "address",
                    "name": "voter",
                    "type": "address"
                },
                {
                    "indexed": false,
                    "internalType": "uint256",
                    "name": "proposal",
                    "type": "uint256"
                },
                {
                    "indexed": false,
                    "internalType": "bool",
                    "name": "votedFor",
                    "type": "bool"
                }
            ],
            "name": "newVote",
            "type": "event"
        },
        {
            "anonymous": false,
            "inputs": [
                {
                    "indexed": false,
                    "internalType": "uint256",
                    "name": "id",
                    "type": "uint256"
                },
                {
                    "indexed": false,
                    "internalType": "bool",
                    "name": "passed",
                    "type": "bool"
                }
            ],
            "name": "proposalCount",
            "type": "event"
        },
        {
            "anonymous": false,
            "inputs": [
                {
                    "indexed": false,
                    "internalType": "uint256",
                    "name": "id",
                    "type": "uint256"
                },
                {
                    "indexed": false,
                    "internalType": "string",
                    "name": "description",
                    "type": "string"
                },
                {
                    "indexed": false,
                    "internalType": "uint256",
                    "name": "maxVotes",
                    "type": "uint256"
                },
                {
                    "indexed": false,
                    "internalType": "address",
                    "name": "proposer",
                    "type": "address"
                }
            ],
            "name": "proposalCreated",
            "type": "event"
        },
        {
            "inputs": [
                {
                    "internalType": "uint256",
                    "name": "",
                    "type": "uint256"
                }
            ],
            "name": "Proposals",
            "outputs": [
                {
                    "internalType": "uint256",
                    "name": "id",
                    "type": "uint256"
                },
                {
                    "internalType": "bool",
                    "name": "exists",
                    "type": "bool"
                },
                {
                    "internalType": "string",
                    "name": "description",
                    "type": "string"
                },
                {
                    "internalType": "uint256",
                    "name": "deadline",
                    "type": "uint256"
                },
                {
                    "internalType": "uint256",
                    "name": "votesUp",
                    "type": "uint256"
                },
                {
                    "internalType": "uint256",
                    "name": "votesDown",
                    "type": "uint256"
                },
                {
                    "internalType": "uint256",
                    "name": "maxVotes",
                    "type": "uint256"
                },
                {
                    "internalType": "bool",
                    "name": "countConducted",
                    "type": "bool"
                },
                {
                    "internalType": "bool",
                    "name": "passed",
                    "type": "bool"
                }
            ],
            "stateMutability": "view",
            "type": "function"
        },
        {
            "inputs": [
                {
                    "internalType": "uint256",
                    "name": "_id",
                    "type": "uint256"
                }
            ],
            "name": "countVotes",
            "outputs": [],
            "stateMutability": "nonpayable",
            "type": "function"
        },
        {
            "inputs": [
                {
                    "internalType": "string",
                    "name": "_description",
                    "type": "string"
                }
            ],
            "name": "createProposal",
            "outputs": [],
            "stateMutability": "nonpayable",
            "type": "function"
        },
        {
            "inputs": [
                {
                    "internalType": "uint256",
                    "name": "_id",
                    "type": "uint256"
                }
            ],
            "name": "isDeadLineMet",
            "outputs": [
                {
                    "internalType": "bool",
                    "name": "",
                    "type": "bool"
                }
            ],
            "stateMutability": "view",
            "type": "function"
        },
        {
            "inputs": [],
            "name": "owner",
            "outputs": [
                {
                    "internalType": "address",
                    "name": "",
                    "type": "address"
                }
            ],
            "stateMutability": "view",
            "type": "function"
        },
        {
            "inputs": [],
            "name": "timeLine",
            "outputs": [
                {
                    "internalType": "contract TimeLine",
                    "name": "",
                    "type": "address"
                }
            ],
            "stateMutability": "view",
            "type": "function"
        },
        {
            "inputs": [
                {
                    "internalType": "uint256",
                    "name": "",
                    "type": "uint256"
                }
            ],
            "name": "validTokens",
            "outputs": [
                {
                    "internalType": "uint256",
                    "name": "",
                    "type": "uint256"
                }
            ],
            "stateMutability": "view",
            "type": "function"
        },
        {
            "inputs": [
                {
                    "internalType": "uint256",
                    "name": "_id",
                    "type": "uint256"
                },
                {
                    "internalType": "bool",
                    "name": "_vote",
                    "type": "bool"
                }
            ],
            "name": "voteOnProposal",
            "outputs": [],
            "stateMutability": "nonpayable",
            "type": "function"
        }
    ],
    "bytecode": "0x60806040523480156200001157600080fd5b5060405162001d1438038062001d148339818101604052810190620000379190620000dd565b336000806101000a81548173ffffffffffffffffffffffffffffffffffffffff021916908373ffffffffffffffffffffffffffffffffffffffff16021790555080600360006101000a81548173ffffffffffffffffffffffffffffffffffffffff021916908373ffffffffffffffffffffffffffffffffffffffff16021790555060018081905550506200016b565b600081519050620000d78162000151565b92915050565b600060208284031215620000f057600080fd5b60006200010084828501620000c6565b91505092915050565b6000620001168262000131565b9050919050565b60006200012a8262000109565b9050919050565b600073ffffffffffffffffffffffffffffffffffffffff82169050919050565b6200015c816200011d565b81146200016857600080fd5b50565b611b99806200017b6000396000f3fe608060405234801561001057600080fd5b50600436106100885760003560e01c8063d1dbe7d81161005b578063d1dbe7d8146100ff578063e4bdd57d14610137578063e9d3d16a14610167578063f405d5c41461019757610088565b80631614665c1461008d5780631840f0ca146100a957806349c2a1a6146100c55780638da5cb5b146100e1575b600080fd5b6100a760048036038101906100a291906111c7565b6101b5565b005b6100c360048036038101906100be9190611175565b610457565b005b6100df60048036038101906100da9190611134565b6106d9565b005b6100e9610a68565b6040516100f6919061159c565b60405180910390f35b61011960048036038101906101149190611175565b610a8c565b60405161012e99989796959493929190611751565b60405180910390f35b610151600480360381019061014c9190611175565b610b89565b60405161015e91906115b7565b60405180910390f35b610181600480360381019061017c9190611175565b610c52565b60405161018e919061170d565b60405180910390f35b61019f610c76565b6040516101ac91906115d2565b60405180910390f35b6004600083815260200190815260200160002060010160009054906101000a900460ff16610218576040517f08c379a000000000000000000000000000000000000000000000000000000000815260040161020f9061162d565b60405180910390fd5b61022133610c9c565b610260576040517f08c379a0000000000000000000000000000000000000000000000000000000008152600401610257906116cd565b60405180910390fd5b6004600083815260200190815260200160002060080160003373ffffffffffffffffffffffffffffffffffffffff1673ffffffffffffffffffffffffffffffffffffffff16815260200190815260200160002060009054906101000a900460ff1615610301576040517f08c379a00000000000000000000000000000000000000000000000000000000081526004016102f8906115ed565b60405180910390fd5b600460008381526020019081526020016000206003015443111561035a576040517f08c379a00000000000000000000000000000000000000000000000000000000081526004016103519061164d565b60405180910390fd5b600060046000848152602001908152602001600020905081156103965780600401600081548092919061038c90611a37565b91905055506103b1565b8060050160008154809291906103ab90611a37565b91905055505b60018160080160003373ffffffffffffffffffffffffffffffffffffffff1673ffffffffffffffffffffffffffffffffffffffff16815260200190815260200160002060006101000a81548160ff0219169083151502179055507f97a3ed91f0b116dc155f238ac92aa5b825720a7bb096f53156e05d9c8ab6a30a8160040154826005015433868660405161044a959493929190611831565b60405180910390a1505050565b60008054906101000a900473ffffffffffffffffffffffffffffffffffffffff1673ffffffffffffffffffffffffffffffffffffffff163373ffffffffffffffffffffffffffffffffffffffff16146104e5576040517f08c379a00000000000000000000000000000000000000000000000000000000081526004016104dc9061166d565b60405180910390fd5b6004600082815260200190815260200160002060010160009054906101000a900460ff16610548576040517f08c379a000000000000000000000000000000000000000000000000000000000815260040161053f9061162d565b60405180910390fd5b60046000828152602001908152602001600020600301544210156105a1576040517f08c379a00000000000000000000000000000000000000000000000000000000081526004016105989061160d565b60405180910390fd5b6004600082815260200190815260200160002060090160009054906101000a900460ff1615610605576040517f08c379a00000000000000000000000000000000000000000000000000000000081526004016105fc9061168d565b60405180910390fd5b600060046000838152602001908152602001600020905060046000838152602001908152602001600020600401546004600084815260200190815260200160002060050154101561066e5760018160090160016101000a81548160ff0219169083151502179055505b60018160090160006101000a81548160ff0219169083151502179055507f4556fcf667ee704924eea359363d28f06708b744ad113340982b07ef9919fb91828260090160019054906101000a900460ff166040516106cd929190611728565b60405180910390a15050565b6106e233610e5b565b610721576040517f08c379a0000000000000000000000000000000000000000000000000000000008152600401610718906116ad565b60405180910390fd5b6000600360009054906101000a900473ffffffffffffffffffffffffffffffffffffffff1673ffffffffffffffffffffffffffffffffffffffff16639a5fb32f6040518163ffffffff1660e01b815260040160206040518083038186803b15801561078b57600080fd5b505afa15801561079f573d6000803e3d6000fd5b505050506040513d601f19601f820116820180604052508101906107c3919061119e565b905060008167ffffffffffffffff811115610807577f4e487b7100000000000000000000000000000000000000000000000000000000600052604160045260246000fd5b6040519080825280602002602001820160405280156108355781602001602082028036833780820191505090505b5090506000600190505b8281101561097857600360009054906101000a900473ffffffffffffffffffffffffffffffffffffffff1673ffffffffffffffffffffffffffffffffffffffff16633feb5f2b826040518263ffffffff1660e01b81526004016108a2919061170d565b60206040518083038186803b1580156108ba57600080fd5b505afa1580156108ce573d6000803e3d6000fd5b505050506040513d601f19601f820116820180604052508101906108f2919061110b565b82828151811061092b577f4e487b7100000000000000000000000000000000000000000000000000000000600052603260045260246000fd5b602002602001019073ffffffffffffffffffffffffffffffffffffffff16908173ffffffffffffffffffffffffffffffffffffffff1681525050808061097090611a37565b91505061083f565b5060006004600060015481526020019081526020016000209050600154816000018190555060018160010160006101000a81548160ff021916908315150217905550838160020190805190602001906109d2929190610f22565b50610e10426109e19190611901565b816003018190555081816006019080519060200190610a01929190610fa8565b508281600701819055507f3ec21697eb8018b62928e5f290d2bccf3af51e8b6cdf71fceab712977647bba9600154858533604051610a4294939291906117e5565b60405180910390a160016000815480929190610a5d90611a37565b919050555050505050565b60008054906101000a900473ffffffffffffffffffffffffffffffffffffffff1681565b60046020528060005260406000206000915090508060000154908060010160009054906101000a900460ff1690806002018054610ac890611a05565b80601f0160208091040260200160405190810160405280929190818152602001828054610af490611a05565b8015610b415780601f10610b1657610100808354040283529160200191610b41565b820191906000526020600020905b815481529060010190602001808311610b2457829003601f168201915b5050505050908060030154908060040154908060050154908060070154908060090160009054906101000a900460ff16908060090160019054906101000a900460ff16905089565b60008060009054906101000a900473ffffffffffffffffffffffffffffffffffffffff1673ffffffffffffffffffffffffffffffffffffffff163373ffffffffffffffffffffffffffffffffffffffff1614610c1a576040517f08c379a0000000000000000000000000000000000000000000000000000000008152600401610c11906116ed565b60405180910390fd5b60006004600084815260200190815260200160002090504281600301541115610c47576001915050610c4d565b60009150505b919050565b60028181548110610c6257600080fd5b906000526020600020016000915090505481565b600360009054906101000a900473ffffffffffffffffffffffffffffffffffffffff1681565b600080600360009054906101000a900473ffffffffffffffffffffffffffffffffffffffff1673ffffffffffffffffffffffffffffffffffffffff16639a5fb32f6040518163ffffffff1660e01b815260040160206040518083038186803b158015610d0757600080fd5b505afa158015610d1b573d6000803e3d6000fd5b505050506040513d601f19601f82011682018060405250810190610d3f919061119e565b905060005b81811015610e4f576000600360009054906101000a900473ffffffffffffffffffffffffffffffffffffffff1673ffffffffffffffffffffffffffffffffffffffff16633feb5f2b836040518263ffffffff1660e01b8152600401610da9919061170d565b60206040518083038186803b158015610dc157600080fd5b505afa158015610dd5573d6000803e3d6000fd5b505050506040513d601f19601f82011682018060405250810190610df9919061110b565b90508473ffffffffffffffffffffffffffffffffffffffff168173ffffffffffffffffffffffffffffffffffffffff161415610e3b5760019350505050610e56565b508080610e4790611a37565b915050610d44565b5060009150505b919050565b600080600360009054906101000a900473ffffffffffffffffffffffffffffffffffffffff1673ffffffffffffffffffffffffffffffffffffffff166370a08231846040518263ffffffff1660e01b8152600401610eb9919061159c565b60206040518083038186803b158015610ed157600080fd5b505afa158015610ee5573d6000803e3d6000fd5b505050506040513d601f19601f82011682018060405250810190610f09919061119e565b1115610f185760019050610f1d565b600090505b919050565b828054610f2e90611a05565b90600052602060002090601f016020900481019282610f505760008555610f97565b82601f10610f6957805160ff1916838001178555610f97565b82800160010185558215610f97579182015b82811115610f96578251825591602001919060010190610f7b565b5b509050610fa49190611032565b5090565b828054828255906000526020600020908101928215611021579160200282015b828111156110205782518260006101000a81548173ffffffffffffffffffffffffffffffffffffffff021916908373ffffffffffffffffffffffffffffffffffffffff16021790555091602001919060010190610fc8565b5b50905061102e9190611032565b5090565b5b8082111561104b576000816000905550600101611033565b5090565b600061106261105d846118b5565b611884565b90508281526020810184848401111561107a57600080fd5b6110858482856119c3565b509392505050565b60008151905061109c81611b1e565b92915050565b6000813590506110b181611b35565b92915050565b600082601f8301126110c857600080fd5b81356110d884826020860161104f565b91505092915050565b6000813590506110f081611b4c565b92915050565b60008151905061110581611b4c565b92915050565b60006020828403121561111d57600080fd5b600061112b8482850161108d565b91505092915050565b60006020828403121561114657600080fd5b600082013567ffffffffffffffff81111561116057600080fd5b61116c848285016110b7565b91505092915050565b60006020828403121561118757600080fd5b6000611195848285016110e1565b91505092915050565b6000602082840312156111b057600080fd5b60006111be848285016110f6565b91505092915050565b600080604083850312156111da57600080fd5b60006111e8858286016110e1565b92505060206111f9858286016110a2565b9150509250929050565b61120c81611957565b82525050565b61121b81611969565b82525050565b61122a8161199f565b82525050565b600061123b826118e5565b61124581856118f0565b93506112558185602086016119d2565b61125e81611b0d565b840191505092915050565b60006112766027836118f0565b91507f596f75206861766520616c726561647920766f746564206f6e2074686973205060008301527f726f706f73616c000000000000000000000000000000000000000000000000006020830152604082019050919050565b60006112dc602e836118f0565b91507f5468697320646561646c696e6520686173206e6f742070617373656420666f7260008301527f20746869732050726f706f73616c0000000000000000000000000000000000006020830152604082019050919050565b6000611342601c836118f0565b91507f546869732050726f706f73616c20646f6573206e6f74206578697374000000006000830152602082019050919050565b6000611382602a836118f0565b91507f5468697320646561646c696e65206861732070617373656420666f722074686960008301527f732050726f706f73616c000000000000000000000000000000000000000000006020830152604082019050919050565b60006113e8601e836118f0565b91507f4f6e6c7920746865206f776e65722063616e20636f756e7420766f74657300006000830152602082019050919050565b60006114286021836118f0565b91507f566f74696e672068617320616c7265616479206265656e20636f6e647563746560008301527f64000000000000000000000000000000000000000000000000000000000000006020830152604082019050919050565b600061148e6033836118f0565b91507f4f6e6c792054696d654c696e6520546f6b656e20686f6c646572732063616e2060008301527f70757420666f7274682050726f706f73616c73000000000000000000000000006020830152604082019050919050565b60006114f46021836118f0565b91507f596f752063616e206e6f7420766f7465206f6e20746869732050726f706f736160008301527f6c000000000000000000000000000000000000000000000000000000000000006020830152604082019050919050565b600061155a601c836118f0565b91507f4f6e6c79204f776e65722043616e205669657720446561646c696e65000000006000830152602082019050919050565b61159681611995565b82525050565b60006020820190506115b16000830184611203565b92915050565b60006020820190506115cc6000830184611212565b92915050565b60006020820190506115e76000830184611221565b92915050565b6000602082019050818103600083015261160681611269565b9050919050565b60006020820190508181036000830152611626816112cf565b9050919050565b6000602082019050818103600083015261164681611335565b9050919050565b6000602082019050818103600083015261166681611375565b9050919050565b60006020820190508181036000830152611686816113db565b9050919050565b600060208201905081810360008301526116a68161141b565b9050919050565b600060208201905081810360008301526116c681611481565b9050919050565b600060208201905081810360008301526116e6816114e7565b9050919050565b600060208201905081810360008301526117068161154d565b9050919050565b6000602082019050611722600083018461158d565b92915050565b600060408201905061173d600083018561158d565b61174a6020830184611212565b9392505050565b600061012082019050611767600083018c61158d565b611774602083018b611212565b8181036040830152611786818a611230565b9050611795606083018961158d565b6117a2608083018861158d565b6117af60a083018761158d565b6117bc60c083018661158d565b6117c960e0830185611212565b6117d7610100830184611212565b9a9950505050505050505050565b60006080820190506117fa600083018761158d565b818103602083015261180c8186611230565b905061181b604083018561158d565b6118286060830184611203565b95945050505050565b600060a082019050611846600083018861158d565b611853602083018761158d565b6118606040830186611203565b61186d606083018561158d565b61187a6080830184611212565b9695505050505050565b6000604051905081810181811067ffffffffffffffff821117156118ab576118aa611ade565b5b8060405250919050565b600067ffffffffffffffff8211156118d0576118cf611ade565b5b601f19601f8301169050602081019050919050565b600081519050919050565b600082825260208201905092915050565b600061190c82611995565b915061191783611995565b9250827fffffffffffffffffffffffffffffffffffffffffffffffffffffffffffffffff0382111561194c5761194b611a80565b5b828201905092915050565b600061196282611975565b9050919050565b60008115159050919050565b600073ffffffffffffffffffffffffffffffffffffffff82169050919050565b6000819050919050565b60006119aa826119b1565b9050919050565b60006119bc82611975565b9050919050565b82818337600083830152505050565b60005b838110156119f05780820151818401526020810190506119d5565b838111156119ff576000848401525b50505050565b60006002820490506001821680611a1d57607f821691505b60208210811415611a3157611a30611aaf565b5b50919050565b6000611a4282611995565b91507fffffffffffffffffffffffffffffffffffffffffffffffffffffffffffffffff821415611a7557611a74611a80565b5b600182019050919050565b7f4e487b7100000000000000000000000000000000000000000000000000000000600052601160045260246000fd5b7f4e487b7100000000000000000000000000000000000000000000000000000000600052602260045260246000fd5b7f4e487b7100000000000000000000000000000000000000000000000000000000600052604160045260246000fd5b6000601f19601f8301169050919050565b611b2781611957565b8114611b3257600080fd5b50565b611b3e81611969565b8114611b4957600080fd5b50565b611b5581611995565b8114611b6057600080fd5b5056fea2646970667358221220efb622aab637d9eeb1c2b6d4bb1b6d971ff0d5edfa5f10b1d0a6439c37a4e69864736f6c63430008000033",
    "linkReferences": {},
    "deployedLinkReferences": {}
}