{
  "_format": "hh-sol-artifact-1",
  "contractName": "DAO",
  "sourceName": "contracts/DAO.sol",
  "abi": [
    {
      "inputs": [
        {
          "internalType": "contract TimeLine",
          "name": "_timeLine",
          "type": "address"
        }
      ],
      "stateMutability": "nonpayable",
      "type": "constructor"
    },
    {
      "anonymous": false,
      "inputs": [
        {
          "indexed": false,
          "internalType": "uint256",
          "name": "votesUp",
          "type": "uint256"
        },
        {
          "indexed": false,
          "internalType": "uint256",
          "name": "votesDown",
          "type": "uint256"
        },
        {
          "indexed": false,
          "internalType": "address",
          "name": "voter",
          "type": "address"
        },
        {
          "indexed": false,
          "internalType": "uint256",
          "name": "proposal",
          "type": "uint256"
        },
        {
          "indexed": false,
          "internalType": "bool",
          "name": "votedFor",
          "type": "bool"
        }
      ],
      "name": "newVote",
      "type": "event"
    },
    {
      "anonymous": false,
      "inputs": [
        {
          "indexed": false,
          "internalType": "uint256",
          "name": "id",
          "type": "uint256"
        },
        {
          "indexed": false,
          "internalType": "bool",
          "name": "passed",
          "type": "bool"
        }
      ],
      "name": "proposalCount",
      "type": "event"
    },
    {
      "anonymous": false,
      "inputs": [
        {
          "indexed": false,
          "internalType": "uint256",
          "name": "id",
          "type": "uint256"
        },
        {
          "indexed": false,
          "internalType": "string",
          "name": "description",
          "type": "string"
        },
        {
          "indexed": false,
          "internalType": "uint256",
          "name": "maxVotes",
          "type": "uint256"
        },
        {
          "indexed": false,
          "internalType": "address",
          "name": "proposer",
          "type": "address"
        }
      ],
      "name": "proposalCreated",
      "type": "event"
    },
    {
      "inputs": [
        {
          "internalType": "uint256",
          "name": "",
          "type": "uint256"
        }
      ],
      "name": "Proposals",
      "outputs": [
        {
          "internalType": "uint256",
          "name": "id",
          "type": "uint256"
        },
        {
          "internalType": "bool",
          "name": "exists",
          "type": "bool"
        },
        {
          "internalType": "string",
          "name": "description",
          "type": "string"
        },
        {
          "internalType": "uint256",
          "name": "deadline",
          "type": "uint256"
        },
        {
          "internalType": "uint256",
          "name": "votesUp",
          "type": "uint256"
        },
        {
          "internalType": "uint256",
          "name": "votesDown",
          "type": "uint256"
        },
        {
          "internalType": "uint256",
          "name": "maxVotes",
          "type": "uint256"
        },
        {
          "internalType": "bool",
          "name": "countConducted",
          "type": "bool"
        },
        {
          "internalType": "bool",
          "name": "passed",
          "type": "bool"
        }
      ],
      "stateMutability": "view",
      "type": "function"
    },
    {
      "inputs": [
        {
          "internalType": "uint256",
          "name": "_id",
          "type": "uint256"
        }
      ],
      "name": "countVotes",
      "outputs": [],
      "stateMutability": "nonpayable",
      "type": "function"
    },
    {
      "inputs": [
        {
          "internalType": "string",
          "name": "_description",
          "type": "string"
        }
      ],
      "name": "createProposal",
      "outputs": [],
      "stateMutability": "nonpayable",
      "type": "function"
    },
    {
      "inputs": [
        {
          "internalType": "uint256",
          "name": "_id",
          "type": "uint256"
        }
      ],
      "name": "isDeadLineMet",
      "outputs": [
        {
          "internalType": "bool",
          "name": "",
          "type": "bool"
        }
      ],
      "stateMutability": "view",
      "type": "function"
    },
    {
      "inputs": [],
      "name": "owner",
      "outputs": [
        {
          "internalType": "address",
          "name": "",
          "type": "address"
        }
      ],
      "stateMutability": "view",
      "type": "function"
    },
    {
      "inputs": [],
      "name": "proposalTotalCount",
      "outputs": [
        {
          "internalType": "uint256",
          "name": "_value",
          "type": "uint256"
        }
      ],
      "stateMutability": "view",
      "type": "function"
    },
    {
      "inputs": [],
      "name": "timeLine",
      "outputs": [
        {
          "internalType": "contract TimeLine",
          "name": "",
          "type": "address"
        }
      ],
      "stateMutability": "view",
      "type": "function"
    },
    {
      "inputs": [],
      "name": "totalProposal",
      "outputs": [
        {
          "internalType": "uint256",
          "name": "",
          "type": "uint256"
        }
      ],
      "stateMutability": "view",
      "type": "function"
    },
    {
      "inputs": [],
      "name": "totalVote",
      "outputs": [
        {
          "internalType": "uint256",
          "name": "",
          "type": "uint256"
        }
      ],
      "stateMutability": "view",
      "type": "function"
    },
    {
      "inputs": [
        {
          "internalType": "uint256",
          "name": "",
          "type": "uint256"
        }
      ],
      "name": "validTokens",
      "outputs": [
        {
          "internalType": "uint256",
          "name": "",
          "type": "uint256"
        }
      ],
      "stateMutability": "view",
      "type": "function"
    },
    {
      "inputs": [
        {
          "internalType": "uint256",
          "name": "_id",
          "type": "uint256"
        },
        {
          "internalType": "bool",
          "name": "_vote",
          "type": "bool"
        }
      ],
      "name": "voteOnProposal",
      "outputs": [],
      "stateMutability": "nonpayable",
      "type": "function"
    },
    {
      "inputs": [],
      "name": "voteTotalCount",
      "outputs": [
        {
          "internalType": "uint256",
          "name": "_value",
          "type": "uint256"
        }
      ],
      "stateMutability": "view",
      "type": "function"
    }
  ],
  "bytecode": "0x60806040523480156200001157600080fd5b5060405162001e2a38038062001e2a8339818101604052810190620000379190620000dd565b336000806101000a81548173ffffffffffffffffffffffffffffffffffffffff021916908373ffffffffffffffffffffffffffffffffffffffff16021790555080600360006101000a81548173ffffffffffffffffffffffffffffffffffffffff021916908373ffffffffffffffffffffffffffffffffffffffff16021790555060018081905550506200016b565b600081519050620000d78162000151565b92915050565b600060208284031215620000f057600080fd5b60006200010084828501620000c6565b91505092915050565b6000620001168262000131565b9050919050565b60006200012a8262000109565b9050919050565b600073ffffffffffffffffffffffffffffffffffffffff82169050919050565b6200015c816200011d565b81146200016857600080fd5b50565b611caf806200017b6000396000f3fe608060405234801561001057600080fd5b50600436106100b45760003560e01c8063d1dbe7d811610071578063d1dbe7d814610167578063e4bdd57d1461019f578063e9d3d16a146101cf578063f1c5fd82146101ff578063f1cea4c71461021d578063f405d5c41461023b576100b4565b80631614665c146100b95780631840f0ca146100d557806349c2a1a6146100f1578063583f41601461010d5780638da5cb5b1461012b5780638f91c77614610149575b600080fd5b6100d360048036038101906100ce91906112dd565b610259565b005b6100ef60048036038101906100ea919061128b565b610505565b005b61010b6004803603810190610106919061124a565b610787565b005b610115610b20565b6040516101229190611823565b60405180910390f35b610133610b2c565b60405161014091906116b2565b60405180910390f35b610151610b50565b60405161015e9190611823565b60405180910390f35b610181600480360381019061017c919061128b565b610b5c565b60405161019699989796959493929190611867565b60405180910390f35b6101b960048036038101906101b4919061128b565b610c59565b6040516101c691906116cd565b60405180910390f35b6101e960048036038101906101e4919061128b565b610d22565b6040516101f69190611823565b60405180910390f35b610207610d46565b6040516102149190611823565b60405180910390f35b610225610d57565b6040516102329190611823565b60405180910390f35b610243610d68565b60405161025091906116e8565b60405180910390f35b6006600083815260200190815260200160002060010160009054906101000a900460ff166102bc576040517f08c379a00000000000000000000000000000000000000000000000000000000081526004016102b390611743565b60405180910390fd5b6102c533610d8e565b610304576040517f08c379a00000000000000000000000000000000000000000000000000000000081526004016102fb906117e3565b60405180910390fd5b6006600083815260200190815260200160002060080160003373ffffffffffffffffffffffffffffffffffffffff1673ffffffffffffffffffffffffffffffffffffffff16815260200190815260200160002060009054906101000a900460ff16156103a5576040517f08c379a000000000000000000000000000000000000000000000000000000000815260040161039c90611703565b60405180910390fd5b60066000838152602001908152602001600020600301544311156103fe576040517f08c379a00000000000000000000000000000000000000000000000000000000081526004016103f590611763565b60405180910390fd5b6000600660008481526020019081526020016000209050811561043a5780600401600081548092919061043090611b4d565b9190505550610455565b80600501600081548092919061044f90611b4d565b91905055505b60018160080160003373ffffffffffffffffffffffffffffffffffffffff1673ffffffffffffffffffffffffffffffffffffffff16815260200190815260200160002060006101000a81548160ff0219169083151502179055507f97a3ed91f0b116dc155f238ac92aa5b825720a7bb096f53156e05d9c8ab6a30a816004015482600501543386866040516104ee959493929190611947565b60405180910390a16105006005610f4d565b505050565b60008054906101000a900473ffffffffffffffffffffffffffffffffffffffff1673ffffffffffffffffffffffffffffffffffffffff163373ffffffffffffffffffffffffffffffffffffffff1614610593576040517f08c379a000000000000000000000000000000000000000000000000000000000815260040161058a90611783565b60405180910390fd5b6006600082815260200190815260200160002060010160009054906101000a900460ff166105f6576040517f08c379a00000000000000000000000000000000000000000000000000000000081526004016105ed90611743565b60405180910390fd5b600660008281526020019081526020016000206003015442101561064f576040517f08c379a000000000000000000000000000000000000000000000000000000000815260040161064690611723565b60405180910390fd5b6006600082815260200190815260200160002060090160009054906101000a900460ff16156106b3576040517f08c379a00000000000000000000000000000000000000000000000000000000081526004016106aa906117a3565b60405180910390fd5b600060066000838152602001908152602001600020905060066000838152602001908152602001600020600401546006600084815260200190815260200160002060050154101561071c5760018160090160016101000a81548160ff0219169083151502179055505b60018160090160006101000a81548160ff0219169083151502179055507f4556fcf667ee704924eea359363d28f06708b744ad113340982b07ef9919fb91828260090160019054906101000a900460ff1660405161077b92919061183e565b60405180910390a15050565b61079033610f63565b6107cf576040517f08c379a00000000000000000000000000000000000000000000000000000000081526004016107c6906117c3565b60405180910390fd5b6000600360009054906101000a900473ffffffffffffffffffffffffffffffffffffffff1673ffffffffffffffffffffffffffffffffffffffff16639a5fb32f6040518163ffffffff1660e01b815260040160206040518083038186803b15801561083957600080fd5b505afa15801561084d573d6000803e3d6000fd5b505050506040513d601f19601f8201168201806040525081019061087191906112b4565b905060008167ffffffffffffffff8111156108b5577f4e487b7100000000000000000000000000000000000000000000000000000000600052604160045260246000fd5b6040519080825280602002602001820160405280156108e35781602001602082028036833780820191505090505b5090506000600190505b82811015610a2657600360009054906101000a900473ffffffffffffffffffffffffffffffffffffffff1673ffffffffffffffffffffffffffffffffffffffff16633feb5f2b826040518263ffffffff1660e01b81526004016109509190611823565b60206040518083038186803b15801561096857600080fd5b505afa15801561097c573d6000803e3d6000fd5b505050506040513d601f19601f820116820180604052508101906109a09190611221565b8282815181106109d9577f4e487b7100000000000000000000000000000000000000000000000000000000600052603260045260246000fd5b602002602001019073ffffffffffffffffffffffffffffffffffffffff16908173ffffffffffffffffffffffffffffffffffffffff16815250508080610a1e90611b4d565b9150506108ed565b5060006006600060015481526020019081526020016000209050600154816000018190555060018160010160006101000a81548160ff02191690831515021790555083816002019080519060200190610a80929190611038565b50610e1042610a8f9190611a17565b816003018190555081816006019080519060200190610aaf9291906110be565b508281600701819055507f3ec21697eb8018b62928e5f290d2bccf3af51e8b6cdf71fceab712977647bba9600154858533604051610af094939291906118fb565b60405180910390a160016000815480929190610b0b90611b4d565b9190505550610b1a6004610f4d565b50505050565b60048060000154905081565b60008054906101000a900473ffffffffffffffffffffffffffffffffffffffff1681565b60058060000154905081565b60066020528060005260406000206000915090508060000154908060010160009054906101000a900460ff1690806002018054610b9890611b1b565b80601f0160208091040260200160405190810160405280929190818152602001828054610bc490611b1b565b8015610c115780601f10610be657610100808354040283529160200191610c11565b820191906000526020600020905b815481529060010190602001808311610bf457829003601f168201915b5050505050908060030154908060040154908060050154908060070154908060090160009054906101000a900460ff16908060090160019054906101000a900460ff16905089565b60008060009054906101000a900473ffffffffffffffffffffffffffffffffffffffff1673ffffffffffffffffffffffffffffffffffffffff163373ffffffffffffffffffffffffffffffffffffffff1614610cea576040517f08c379a0000000000000000000000000000000000000000000000000000000008152600401610ce190611803565b60405180910390fd5b60006006600084815260200190815260200160002090504281600301541115610d17576001915050610d1d565b60009150505b919050565b60028181548110610d3257600080fd5b906000526020600020016000915090505481565b6000610d52600461102a565b905090565b6000610d63600561102a565b905090565b600360009054906101000a900473ffffffffffffffffffffffffffffffffffffffff1681565b600080600360009054906101000a900473ffffffffffffffffffffffffffffffffffffffff1673ffffffffffffffffffffffffffffffffffffffff16639a5fb32f6040518163ffffffff1660e01b815260040160206040518083038186803b158015610df957600080fd5b505afa158015610e0d573d6000803e3d6000fd5b505050506040513d601f19601f82011682018060405250810190610e3191906112b4565b905060005b81811015610f41576000600360009054906101000a900473ffffffffffffffffffffffffffffffffffffffff1673ffffffffffffffffffffffffffffffffffffffff16633feb5f2b836040518263ffffffff1660e01b8152600401610e9b9190611823565b60206040518083038186803b158015610eb357600080fd5b505afa158015610ec7573d6000803e3d6000fd5b505050506040513d601f19601f82011682018060405250810190610eeb9190611221565b90508473ffffffffffffffffffffffffffffffffffffffff168173ffffffffffffffffffffffffffffffffffffffff161415610f2d5760019350505050610f48565b508080610f3990611b4d565b915050610e36565b5060009150505b919050565b6001816000016000828254019250508190555050565b600080600360009054906101000a900473ffffffffffffffffffffffffffffffffffffffff1673ffffffffffffffffffffffffffffffffffffffff166370a08231846040518263ffffffff1660e01b8152600401610fc191906116b2565b60206040518083038186803b158015610fd957600080fd5b505afa158015610fed573d6000803e3d6000fd5b505050506040513d601f19601f8201168201806040525081019061101191906112b4565b11156110205760019050611025565b600090505b919050565b600081600001549050919050565b82805461104490611b1b565b90600052602060002090601f01602090048101928261106657600085556110ad565b82601f1061107f57805160ff19168380011785556110ad565b828001600101855582156110ad579182015b828111156110ac578251825591602001919060010190611091565b5b5090506110ba9190611148565b5090565b828054828255906000526020600020908101928215611137579160200282015b828111156111365782518260006101000a81548173ffffffffffffffffffffffffffffffffffffffff021916908373ffffffffffffffffffffffffffffffffffffffff160217905550916020019190600101906110de565b5b5090506111449190611148565b5090565b5b80821115611161576000816000905550600101611149565b5090565b6000611178611173846119cb565b61199a565b90508281526020810184848401111561119057600080fd5b61119b848285611ad9565b509392505050565b6000815190506111b281611c34565b92915050565b6000813590506111c781611c4b565b92915050565b600082601f8301126111de57600080fd5b81356111ee848260208601611165565b91505092915050565b60008135905061120681611c62565b92915050565b60008151905061121b81611c62565b92915050565b60006020828403121561123357600080fd5b6000611241848285016111a3565b91505092915050565b60006020828403121561125c57600080fd5b600082013567ffffffffffffffff81111561127657600080fd5b611282848285016111cd565b91505092915050565b60006020828403121561129d57600080fd5b60006112ab848285016111f7565b91505092915050565b6000602082840312156112c657600080fd5b60006112d48482850161120c565b91505092915050565b600080604083850312156112f057600080fd5b60006112fe858286016111f7565b925050602061130f858286016111b8565b9150509250929050565b61132281611a6d565b82525050565b61133181611a7f565b82525050565b61134081611ab5565b82525050565b6000611351826119fb565b61135b8185611a06565b935061136b818560208601611ae8565b61137481611c23565b840191505092915050565b600061138c602783611a06565b91507f596f75206861766520616c726561647920766f746564206f6e2074686973205060008301527f726f706f73616c000000000000000000000000000000000000000000000000006020830152604082019050919050565b60006113f2602e83611a06565b91507f5468697320646561646c696e6520686173206e6f742070617373656420666f7260008301527f20746869732050726f706f73616c0000000000000000000000000000000000006020830152604082019050919050565b6000611458601c83611a06565b91507f546869732050726f706f73616c20646f6573206e6f74206578697374000000006000830152602082019050919050565b6000611498602a83611a06565b91507f5468697320646561646c696e65206861732070617373656420666f722074686960008301527f732050726f706f73616c000000000000000000000000000000000000000000006020830152604082019050919050565b60006114fe601e83611a06565b91507f4f6e6c7920746865206f776e65722063616e20636f756e7420766f74657300006000830152602082019050919050565b600061153e602183611a06565b91507f566f74696e672068617320616c7265616479206265656e20636f6e647563746560008301527f64000000000000000000000000000000000000000000000000000000000000006020830152604082019050919050565b60006115a4603383611a06565b91507f4f6e6c792054696d654c696e6520546f6b656e20686f6c646572732063616e2060008301527f70757420666f7274682050726f706f73616c73000000000000000000000000006020830152604082019050919050565b600061160a602183611a06565b91507f596f752063616e206e6f7420766f7465206f6e20746869732050726f706f736160008301527f6c000000000000000000000000000000000000000000000000000000000000006020830152604082019050919050565b6000611670601c83611a06565b91507f4f6e6c79204f776e65722043616e205669657720446561646c696e65000000006000830152602082019050919050565b6116ac81611aab565b82525050565b60006020820190506116c76000830184611319565b92915050565b60006020820190506116e26000830184611328565b92915050565b60006020820190506116fd6000830184611337565b92915050565b6000602082019050818103600083015261171c8161137f565b9050919050565b6000602082019050818103600083015261173c816113e5565b9050919050565b6000602082019050818103600083015261175c8161144b565b9050919050565b6000602082019050818103600083015261177c8161148b565b9050919050565b6000602082019050818103600083015261179c816114f1565b9050919050565b600060208201905081810360008301526117bc81611531565b9050919050565b600060208201905081810360008301526117dc81611597565b9050919050565b600060208201905081810360008301526117fc816115fd565b9050919050565b6000602082019050818103600083015261181c81611663565b9050919050565b600060208201905061183860008301846116a3565b92915050565b600060408201905061185360008301856116a3565b6118606020830184611328565b9392505050565b60006101208201905061187d600083018c6116a3565b61188a602083018b611328565b818103604083015261189c818a611346565b90506118ab60608301896116a3565b6118b860808301886116a3565b6118c560a08301876116a3565b6118d260c08301866116a3565b6118df60e0830185611328565b6118ed610100830184611328565b9a9950505050505050505050565b600060808201905061191060008301876116a3565b81810360208301526119228186611346565b905061193160408301856116a3565b61193e6060830184611319565b95945050505050565b600060a08201905061195c60008301886116a3565b61196960208301876116a3565b6119766040830186611319565b61198360608301856116a3565b6119906080830184611328565b9695505050505050565b6000604051905081810181811067ffffffffffffffff821117156119c1576119c0611bf4565b5b8060405250919050565b600067ffffffffffffffff8211156119e6576119e5611bf4565b5b601f19601f8301169050602081019050919050565b600081519050919050565b600082825260208201905092915050565b6000611a2282611aab565b9150611a2d83611aab565b9250827fffffffffffffffffffffffffffffffffffffffffffffffffffffffffffffffff03821115611a6257611a61611b96565b5b828201905092915050565b6000611a7882611a8b565b9050919050565b60008115159050919050565b600073ffffffffffffffffffffffffffffffffffffffff82169050919050565b6000819050919050565b6000611ac082611ac7565b9050919050565b6000611ad282611a8b565b9050919050565b82818337600083830152505050565b60005b83811015611b06578082015181840152602081019050611aeb565b83811115611b15576000848401525b50505050565b60006002820490506001821680611b3357607f821691505b60208210811415611b4757611b46611bc5565b5b50919050565b6000611b5882611aab565b91507fffffffffffffffffffffffffffffffffffffffffffffffffffffffffffffffff821415611b8b57611b8a611b96565b5b600182019050919050565b7f4e487b7100000000000000000000000000000000000000000000000000000000600052601160045260246000fd5b7f4e487b7100000000000000000000000000000000000000000000000000000000600052602260045260246000fd5b7f4e487b7100000000000000000000000000000000000000000000000000000000600052604160045260246000fd5b6000601f19601f8301169050919050565b611c3d81611a6d565b8114611c4857600080fd5b50565b611c5481611a7f565b8114611c5f57600080fd5b50565b611c6b81611aab565b8114611c7657600080fd5b5056fea2646970667358221220f708688e98730c63d5e8e7e8a1cdd6fb3221240c0094d327c9ee67f11b8196c364736f6c63430008000033",
  "linkReferences": {},
  "deployedLinkReferences": {}
}