{
  "_format": "hh-sol-artifact-1",
  "contractName": "DAO",
  "sourceName": "contracts/DAO.sol",
  "abi": [
    {
      "inputs": [
        {
          "internalType": "contract TimeLine",
          "name": "_timeLine",
          "type": "address"
        },
        {
          "internalType": "address",
          "name": "_daitokenAddress",
          "type": "address"
        }
      ],
      "stateMutability": "nonpayable",
      "type": "constructor"
    },
    {
      "anonymous": false,
      "inputs": [
        {
          "indexed": false,
          "internalType": "uint256",
          "name": "votesUp",
          "type": "uint256"
        },
        {
          "indexed": false,
          "internalType": "uint256",
          "name": "votesDown",
          "type": "uint256"
        },
        {
          "indexed": false,
          "internalType": "address",
          "name": "voter",
          "type": "address"
        },
        {
          "indexed": false,
          "internalType": "uint256",
          "name": "proposal",
          "type": "uint256"
        },
        {
          "indexed": false,
          "internalType": "bool",
          "name": "votedFor",
          "type": "bool"
        }
      ],
      "name": "newVote",
      "type": "event"
    },
    {
      "anonymous": false,
      "inputs": [
        {
          "indexed": false,
          "internalType": "uint256",
          "name": "id",
          "type": "uint256"
        },
        {
          "indexed": false,
          "internalType": "bool",
          "name": "passed",
          "type": "bool"
        }
      ],
      "name": "proposalCount",
      "type": "event"
    },
    {
      "anonymous": false,
      "inputs": [
        {
          "indexed": false,
          "internalType": "uint256",
          "name": "id",
          "type": "uint256"
        },
        {
          "indexed": false,
          "internalType": "string",
          "name": "description",
          "type": "string"
        },
        {
          "indexed": false,
          "internalType": "uint256",
          "name": "maxVotes",
          "type": "uint256"
        },
        {
          "indexed": false,
          "internalType": "address",
          "name": "proposer",
          "type": "address"
        }
      ],
      "name": "proposalCreated",
      "type": "event"
    },
    {
      "inputs": [
        {
          "internalType": "uint256",
          "name": "",
          "type": "uint256"
        }
      ],
      "name": "Proposals",
      "outputs": [
        {
          "internalType": "uint256",
          "name": "id",
          "type": "uint256"
        },
        {
          "internalType": "bool",
          "name": "exists",
          "type": "bool"
        },
        {
          "internalType": "string",
          "name": "description",
          "type": "string"
        },
        {
          "internalType": "uint256",
          "name": "deadline",
          "type": "uint256"
        },
        {
          "internalType": "uint256",
          "name": "votesUp",
          "type": "uint256"
        },
        {
          "internalType": "uint256",
          "name": "votesDown",
          "type": "uint256"
        },
        {
          "internalType": "uint256",
          "name": "maxVotes",
          "type": "uint256"
        },
        {
          "internalType": "bool",
          "name": "countConducted",
          "type": "bool"
        },
        {
          "internalType": "bool",
          "name": "passed",
          "type": "bool"
        },
        {
          "internalType": "string",
          "name": "status",
          "type": "string"
        },
        {
          "internalType": "address",
          "name": "proposer",
          "type": "address"
        }
      ],
      "stateMutability": "view",
      "type": "function"
    },
    {
      "inputs": [
        {
          "internalType": "uint256",
          "name": "_id",
          "type": "uint256"
        }
      ],
      "name": "countVotes",
      "outputs": [],
      "stateMutability": "nonpayable",
      "type": "function"
    },
    {
      "inputs": [
        {
          "internalType": "string",
          "name": "_description",
          "type": "string"
        }
      ],
      "name": "createProposal",
      "outputs": [],
      "stateMutability": "nonpayable",
      "type": "function"
    },
    {
      "inputs": [],
      "name": "daiToken",
      "outputs": [
        {
          "internalType": "address",
          "name": "",
          "type": "address"
        }
      ],
      "stateMutability": "view",
      "type": "function"
    },
    {
      "inputs": [],
      "name": "fetchAllProposals",
      "outputs": [
        {
          "components": [
            {
              "internalType": "uint256",
              "name": "id",
              "type": "uint256"
            },
            {
              "internalType": "bool",
              "name": "exists",
              "type": "bool"
            },
            {
              "internalType": "string",
              "name": "description",
              "type": "string"
            },
            {
              "internalType": "uint256",
              "name": "votesUp",
              "type": "uint256"
            },
            {
              "internalType": "uint256",
              "name": "votesDown",
              "type": "uint256"
            },
            {
              "internalType": "bool",
              "name": "passed",
              "type": "bool"
            },
            {
              "internalType": "bool",
              "name": "countConducted",
              "type": "bool"
            },
            {
              "internalType": "string",
              "name": "status",
              "type": "string"
            },
            {
              "internalType": "address",
              "name": "proposer",
              "type": "address"
            }
          ],
          "internalType": "struct DAO.proposalReturn[]",
          "name": "",
          "type": "tuple[]"
        }
      ],
      "stateMutability": "view",
      "type": "function"
    },
    {
      "inputs": [],
      "name": "fetchTotalAsset",
      "outputs": [
        {
          "internalType": "uint256",
          "name": "",
          "type": "uint256"
        }
      ],
      "stateMutability": "view",
      "type": "function"
    },
    {
      "inputs": [
        {
          "internalType": "uint256",
          "name": "_id",
          "type": "uint256"
        }
      ],
      "name": "isDeadLineMet",
      "outputs": [
        {
          "internalType": "bool",
          "name": "",
          "type": "bool"
        }
      ],
      "stateMutability": "view",
      "type": "function"
    },
    {
      "inputs": [],
      "name": "owner",
      "outputs": [
        {
          "internalType": "address",
          "name": "",
          "type": "address"
        }
      ],
      "stateMutability": "view",
      "type": "function"
    },
    {
      "inputs": [],
      "name": "proposalTotalCount",
      "outputs": [
        {
          "internalType": "uint256",
          "name": "_value",
          "type": "uint256"
        }
      ],
      "stateMutability": "view",
      "type": "function"
    },
    {
      "inputs": [],
      "name": "timeLine",
      "outputs": [
        {
          "internalType": "contract TimeLine",
          "name": "",
          "type": "address"
        }
      ],
      "stateMutability": "view",
      "type": "function"
    },
    {
      "inputs": [],
      "name": "totalProposal",
      "outputs": [
        {
          "internalType": "uint256",
          "name": "",
          "type": "uint256"
        }
      ],
      "stateMutability": "view",
      "type": "function"
    },
    {
      "inputs": [],
      "name": "totalVote",
      "outputs": [
        {
          "internalType": "uint256",
          "name": "",
          "type": "uint256"
        }
      ],
      "stateMutability": "view",
      "type": "function"
    },
    {
      "inputs": [
        {
          "internalType": "uint256",
          "name": "",
          "type": "uint256"
        }
      ],
      "name": "validTokens",
      "outputs": [
        {
          "internalType": "uint256",
          "name": "",
          "type": "uint256"
        }
      ],
      "stateMutability": "view",
      "type": "function"
    },
    {
      "inputs": [
        {
          "internalType": "uint256",
          "name": "_id",
          "type": "uint256"
        },
        {
          "internalType": "bool",
          "name": "_vote",
          "type": "bool"
        }
      ],
      "name": "voteOnProposal",
      "outputs": [],
      "stateMutability": "nonpayable",
      "type": "function"
    },
    {
      "inputs": [],
      "name": "voteTotalCount",
      "outputs": [
        {
          "internalType": "uint256",
          "name": "_value",
          "type": "uint256"
        }
      ],
      "stateMutability": "view",
      "type": "function"
    }
  ],
  "bytecode": "0x60806040523480156200001157600080fd5b5060405162002b5c38038062002b5c83398181016040528101906200003791906200017a565b336000806101000a81548173ffffffffffffffffffffffffffffffffffffffff021916908373ffffffffffffffffffffffffffffffffffffffff16021790555081600360006101000a81548173ffffffffffffffffffffffffffffffffffffffff021916908373ffffffffffffffffffffffffffffffffffffffff16021790555080600460006101000a81548173ffffffffffffffffffffffffffffffffffffffff021916908373ffffffffffffffffffffffffffffffffffffffff160217905550600180819055506200011760056200013660201b620016e01760201c565b6200012e60066200013660201b620016e01760201c565b505062000237565b6001816000016000828254019250508190555050565b6000815190506200015d8162000203565b92915050565b60008151905062000174816200021d565b92915050565b600080604083850312156200018e57600080fd5b60006200019e8582860162000163565b9250506020620001b1858286016200014c565b9150509250929050565b6000620001c882620001e3565b9050919050565b6000620001dc82620001bb565b9050919050565b600073ffffffffffffffffffffffffffffffffffffffff82169050919050565b6200020e81620001bb565b81146200021a57600080fd5b50565b6200022881620001cf565b81146200023457600080fd5b50565b61291580620002476000396000f3fe608060405234801561001057600080fd5b50600436106100f55760003560e01c8063be22f54611610097578063f1c5fd8211610066578063f1c5fd821461027e578063f1cea4c71461029c578063f405d5c4146102ba578063f9bc86fa146102d8576100f5565b8063be22f546146101c6578063d1dbe7d8146101e4578063e4bdd57d1461021e578063e9d3d16a1461024e576100f5565b806349c2a1a6116100d357806349c2a1a614610150578063583f41601461016c5780638da5cb5b1461018a5780638f91c776146101a8576100f5565b80631614665c146100fa5780631840f0ca146101165780632d9a65f914610132575b600080fd5b610114600480360381019061010f9190611c97565b6102f6565b005b610130600480360381019061012b9190611c45565b6105a2565b005b61013a6108c5565b6040516101479190612242565b60405180910390f35b61016a60048036038101906101659190611c04565b610e77565b005b6101746112a0565b60405161018191906123ba565b60405180910390f35b6101926112ac565b60405161019f9190612227565b60405180910390f35b6101b06112d0565b6040516101bd91906123ba565b60405180910390f35b6101ce6112dc565b6040516101db9190612227565b60405180910390f35b6101fe60048036038101906101f99190611c45565b611302565b6040516102159b9a999897969594939291906123fe565b60405180910390f35b61023860048036038101906102339190611c45565b6114b3565b6040516102459190612264565b60405180910390f35b61026860048036038101906102639190611c45565b61157c565b60405161027591906123ba565b60405180910390f35b6102866115a0565b60405161029391906123ba565b60405180910390f35b6102a46115b1565b6040516102b191906123ba565b60405180910390f35b6102c26115c2565b6040516102cf919061227f565b60405180910390f35b6102e06115e8565b6040516102ed91906123ba565b60405180910390f35b6007600083815260200190815260200160002060010160009054906101000a900460ff16610359576040517f08c379a0000000000000000000000000000000000000000000000000000000008152600401610350906122da565b60405180910390fd5b610362336116f6565b6103a1576040517f08c379a00000000000000000000000000000000000000000000000000000000081526004016103989061237a565b60405180910390fd5b6007600083815260200190815260200160002060080160003373ffffffffffffffffffffffffffffffffffffffff1673ffffffffffffffffffffffffffffffffffffffff16815260200190815260200160002060009054906101000a900460ff1615610442576040517f08c379a00000000000000000000000000000000000000000000000000000000081526004016104399061229a565b60405180910390fd5b600760008381526020019081526020016000206003015443111561049b576040517f08c379a0000000000000000000000000000000000000000000000000000000008152600401610492906122fa565b60405180910390fd5b600060076000848152602001908152602001600020905081156104d7578060040160008154809291906104cd90612784565b91905055506104f2565b8060050160008154809291906104ec90612784565b91905055505b60018160080160003373ffffffffffffffffffffffffffffffffffffffff1673ffffffffffffffffffffffffffffffffffffffff16815260200190815260200160002060006101000a81548160ff0219169083151502179055507f97a3ed91f0b116dc155f238ac92aa5b825720a7bb096f53156e05d9c8ab6a30a8160040154826005015433868660405161058b959493929190612503565b60405180910390a161059d60066116e0565b505050565b60008054906101000a900473ffffffffffffffffffffffffffffffffffffffff1673ffffffffffffffffffffffffffffffffffffffff163373ffffffffffffffffffffffffffffffffffffffff1614610630576040517f08c379a00000000000000000000000000000000000000000000000000000000081526004016106279061231a565b60405180910390fd5b6007600082815260200190815260200160002060010160009054906101000a900460ff16610693576040517f08c379a000000000000000000000000000000000000000000000000000000000815260040161068a906122da565b60405180910390fd5b60076000828152602001908152602001600020600301544210156106ec576040517f08c379a00000000000000000000000000000000000000000000000000000000081526004016106e3906122ba565b60405180910390fd5b6007600082815260200190815260200160002060090160009054906101000a900460ff1615610750576040517f08c379a00000000000000000000000000000000000000000000000000000000081526004016107479061233a565b60405180910390fd5b600060076000838152602001908152602001600020905060076000838152602001908152602001600020600401546007600084815260200190815260200160002060050154101561080b5760018160090160016101000a81548160ff0219169083151502179055506040518060400160405280600881526020017f416363657074656400000000000000000000000000000000000000000000000081525081600a01908051906020019061080592919061198a565b5061085a565b6040518060400160405280600881526020017f52656a656374656400000000000000000000000000000000000000000000000081525081600a01908051906020019061085892919061198a565b505b60018160090160006101000a81548160ff0219169083151502179055507f4556fcf667ee704924eea359363d28f06708b744ad113340982b07ef9919fb91828260090160019054906101000a900460ff166040516108b99291906123d5565b60405180910390a15050565b606060006108d360056118b5565b67ffffffffffffffff811115610912577f4e487b7100000000000000000000000000000000000000000000000000000000600052604160045260246000fd5b60405190808252806020026020018201604052801561094b57816020015b610938611a10565b8152602001906001900390816109305790505b5090506000600190505b61095f60056118b5565b811015610e6f5760076000828152602001908152602001600020600001548282815181106109b6577f4e487b7100000000000000000000000000000000000000000000000000000000600052603260045260246000fd5b602002602001015160000181815250506007600082815260200190815260200160002060010160009054906101000a900460ff16828281518110610a23577f4e487b7100000000000000000000000000000000000000000000000000000000600052603260045260246000fd5b60200260200101516020019015159081151581525050600760008281526020019081526020016000206002018054610a5a90612752565b80601f0160208091040260200160405190810160405280929190818152602001828054610a8690612752565b8015610ad35780601f10610aa857610100808354040283529160200191610ad3565b820191906000526020600020905b815481529060010190602001808311610ab657829003601f168201915b5050505050828281518110610b11577f4e487b7100000000000000000000000000000000000000000000000000000000600052603260045260246000fd5b6020026020010151604001819052506007600082815260200190815260200160002060040154828281518110610b70577f4e487b7100000000000000000000000000000000000000000000000000000000600052603260045260246000fd5b602002602001015160600181815250506007600082815260200190815260200160002060050154828281518110610bd0577f4e487b7100000000000000000000000000000000000000000000000000000000600052603260045260246000fd5b602002602001015160800181815250506007600082815260200190815260200160002060090160019054906101000a900460ff16828281518110610c3d577f4e487b7100000000000000000000000000000000000000000000000000000000600052603260045260246000fd5b602002602001015160a00190151590811515815250506007600082815260200190815260200160002060090160009054906101000a900460ff16828281518110610cb0577f4e487b7100000000000000000000000000000000000000000000000000000000600052603260045260246000fd5b602002602001015160c001901515908115158152505060076000828152602001908152602001600020600a018054610ce790612752565b80601f0160208091040260200160405190810160405280929190818152602001828054610d1390612752565b8015610d605780601f10610d3557610100808354040283529160200191610d60565b820191906000526020600020905b815481529060010190602001808311610d4357829003601f168201915b5050505050828281518110610d9e577f4e487b7100000000000000000000000000000000000000000000000000000000600052603260045260246000fd5b602002602001015160e0018190525060076000828152602001908152602001600020600b0160009054906101000a900473ffffffffffffffffffffffffffffffffffffffff16828281518110610e1d577f4e487b7100000000000000000000000000000000000000000000000000000000600052603260045260246000fd5b6020026020010151610100019073ffffffffffffffffffffffffffffffffffffffff16908173ffffffffffffffffffffffffffffffffffffffff16815250508080610e6790612784565b915050610955565b508091505090565b610e80336118c3565b610ebf576040517f08c379a0000000000000000000000000000000000000000000000000000000008152600401610eb69061235a565b60405180910390fd5b6000600360009054906101000a900473ffffffffffffffffffffffffffffffffffffffff1673ffffffffffffffffffffffffffffffffffffffff16639a5fb32f6040518163ffffffff1660e01b815260040160206040518083038186803b158015610f2957600080fd5b505afa158015610f3d573d6000803e3d6000fd5b505050506040513d601f19601f82011682018060405250810190610f619190611c6e565b905060008167ffffffffffffffff811115610fa5577f4e487b7100000000000000000000000000000000000000000000000000000000600052604160045260246000fd5b604051908082528060200260200182016040528015610fd35781602001602082028036833780820191505090505b5090506000600190505b8281101561111657600360009054906101000a900473ffffffffffffffffffffffffffffffffffffffff1673ffffffffffffffffffffffffffffffffffffffff16633feb5f2b826040518263ffffffff1660e01b815260040161104091906123ba565b60206040518083038186803b15801561105857600080fd5b505afa15801561106c573d6000803e3d6000fd5b505050506040513d601f19601f820116820180604052508101906110909190611bdb565b8282815181106110c9577f4e487b7100000000000000000000000000000000000000000000000000000000600052603260045260246000fd5b602002602001019073ffffffffffffffffffffffffffffffffffffffff16908173ffffffffffffffffffffffffffffffffffffffff1681525050808061110e90612784565b915050610fdd565b5060006007600060015481526020019081526020016000209050600154816000018190555060018160010160006101000a81548160ff0219169083151502179055508381600201908051906020019061117092919061198a565b5060064261117e919061261d565b81600301819055508181600601908051906020019061119e929190611a78565b508281600701819055506040518060400160405280600781526020017f4f6e676f696e670000000000000000000000000000000000000000000000000081525081600a0190805190602001906111f592919061198a565b503381600b0160006101000a81548173ffffffffffffffffffffffffffffffffffffffff021916908373ffffffffffffffffffffffffffffffffffffffff1602179055507f3ec21697eb8018b62928e5f290d2bccf3af51e8b6cdf71fceab712977647bba960015485853360405161127094939291906124b7565b60405180910390a16001600081548092919061128b90612784565b919050555061129a60056116e0565b50505050565b60058060000154905081565b60008054906101000a900473ffffffffffffffffffffffffffffffffffffffff1681565b60068060000154905081565b600460009054906101000a900473ffffffffffffffffffffffffffffffffffffffff1681565b60076020528060005260406000206000915090508060000154908060010160009054906101000a900460ff169080600201805461133e90612752565b80601f016020809104026020016040519081016040528092919081815260200182805461136a90612752565b80156113b75780601f1061138c576101008083540402835291602001916113b7565b820191906000526020600020905b81548152906001019060200180831161139a57829003601f168201915b5050505050908060030154908060040154908060050154908060070154908060090160009054906101000a900460ff16908060090160019054906101000a900460ff169080600a01805461140a90612752565b80601f016020809104026020016040519081016040528092919081815260200182805461143690612752565b80156114835780601f1061145857610100808354040283529160200191611483565b820191906000526020600020905b81548152906001019060200180831161146657829003601f168201915b50505050509080600b0160009054906101000a900473ffffffffffffffffffffffffffffffffffffffff1690508b565b60008060009054906101000a900473ffffffffffffffffffffffffffffffffffffffff1673ffffffffffffffffffffffffffffffffffffffff163373ffffffffffffffffffffffffffffffffffffffff1614611544576040517f08c379a000000000000000000000000000000000000000000000000000000000815260040161153b9061239a565b60405180910390fd5b60006007600084815260200190815260200160002090504281600301541115611571576001915050611577565b60009150505b919050565b6002818154811061158c57600080fd5b906000526020600020016000915090505481565b60006115ac60056118b5565b905090565b60006115bd60066118b5565b905090565b600360009054906101000a900473ffffffffffffffffffffffffffffffffffffffff1681565b600080602d600360009054906101000a900473ffffffffffffffffffffffffffffffffffffffff1673ffffffffffffffffffffffffffffffffffffffff166370a08231600460009054906101000a900473ffffffffffffffffffffffffffffffffffffffff166040518263ffffffff1660e01b815260040161166a9190612227565b60206040518083038186803b15801561168257600080fd5b505afa158015611696573d6000803e3d6000fd5b505050506040513d601f19601f820116820180604052508101906116ba9190611c6e565b6116c49190612673565b9050670de0b6b3a7640000816116da9190612673565b91505090565b6001816000016000828254019250508190555050565b600080600360009054906101000a900473ffffffffffffffffffffffffffffffffffffffff1673ffffffffffffffffffffffffffffffffffffffff16639a5fb32f6040518163ffffffff1660e01b815260040160206040518083038186803b15801561176157600080fd5b505afa158015611775573d6000803e3d6000fd5b505050506040513d601f19601f820116820180604052508101906117999190611c6e565b905060005b818110156118a9576000600360009054906101000a900473ffffffffffffffffffffffffffffffffffffffff1673ffffffffffffffffffffffffffffffffffffffff16633feb5f2b836040518263ffffffff1660e01b815260040161180391906123ba565b60206040518083038186803b15801561181b57600080fd5b505afa15801561182f573d6000803e3d6000fd5b505050506040513d601f19601f820116820180604052508101906118539190611bdb565b90508473ffffffffffffffffffffffffffffffffffffffff168173ffffffffffffffffffffffffffffffffffffffff16141561189557600193505050506118b0565b5080806118a190612784565b91505061179e565b5060009150505b919050565b600081600001549050919050565b600080600360009054906101000a900473ffffffffffffffffffffffffffffffffffffffff1673ffffffffffffffffffffffffffffffffffffffff166370a08231846040518263ffffffff1660e01b81526004016119219190612227565b60206040518083038186803b15801561193957600080fd5b505afa15801561194d573d6000803e3d6000fd5b505050506040513d601f19601f820116820180604052508101906119719190611c6e565b11156119805760019050611985565b600090505b919050565b82805461199690612752565b90600052602060002090601f0160209004810192826119b857600085556119ff565b82601f106119d157805160ff19168380011785556119ff565b828001600101855582156119ff579182015b828111156119fe5782518255916020019190600101906119e3565b5b509050611a0c9190611b02565b5090565b6040518061012001604052806000815260200160001515815260200160608152602001600081526020016000815260200160001515815260200160001515815260200160608152602001600073ffffffffffffffffffffffffffffffffffffffff1681525090565b828054828255906000526020600020908101928215611af1579160200282015b82811115611af05782518260006101000a81548173ffffffffffffffffffffffffffffffffffffffff021916908373ffffffffffffffffffffffffffffffffffffffff16021790555091602001919060010190611a98565b5b509050611afe9190611b02565b5090565b5b80821115611b1b576000816000905550600101611b03565b5090565b6000611b32611b2d84612587565b612556565b905082815260208101848484011115611b4a57600080fd5b611b55848285612710565b509392505050565b600081519050611b6c8161289a565b92915050565b600081359050611b81816128b1565b92915050565b600082601f830112611b9857600080fd5b8135611ba8848260208601611b1f565b91505092915050565b600081359050611bc0816128c8565b92915050565b600081519050611bd5816128c8565b92915050565b600060208284031215611bed57600080fd5b6000611bfb84828501611b5d565b91505092915050565b600060208284031215611c1657600080fd5b600082013567ffffffffffffffff811115611c3057600080fd5b611c3c84828501611b87565b91505092915050565b600060208284031215611c5757600080fd5b6000611c6584828501611bb1565b91505092915050565b600060208284031215611c8057600080fd5b6000611c8e84828501611bc6565b91505092915050565b60008060408385031215611caa57600080fd5b6000611cb885828601611bb1565b9250506020611cc985828601611b72565b9150509250929050565b6000611cdf838361213d565b905092915050565b611cf0816126a4565b82525050565b611cff816126a4565b82525050565b6000611d10826125c7565b611d1a81856125ea565b935083602082028501611d2c856125b7565b8060005b85811015611d685784840389528151611d498582611cd3565b9450611d54836125dd565b925060208a01995050600181019050611d30565b50829750879550505050505092915050565b611d83816126b6565b82525050565b611d92816126b6565b82525050565b611da1816126ec565b82525050565b6000611db2826125d2565b611dbc81856125fb565b9350611dcc81856020860161271f565b611dd581612889565b840191505092915050565b6000611deb826125d2565b611df5818561260c565b9350611e0581856020860161271f565b611e0e81612889565b840191505092915050565b6000611e2660278361260c565b91507f596f75206861766520616c726561647920766f746564206f6e2074686973205060008301527f726f706f73616c000000000000000000000000000000000000000000000000006020830152604082019050919050565b6000611e8c602e8361260c565b91507f5468697320646561646c696e6520686173206e6f742070617373656420666f7260008301527f20746869732050726f706f73616c0000000000000000000000000000000000006020830152604082019050919050565b6000611ef2601c8361260c565b91507f546869732050726f706f73616c20646f6573206e6f74206578697374000000006000830152602082019050919050565b6000611f32602a8361260c565b91507f5468697320646561646c696e65206861732070617373656420666f722074686960008301527f732050726f706f73616c000000000000000000000000000000000000000000006020830152604082019050919050565b6000611f98601e8361260c565b91507f4f6e6c7920746865206f776e65722063616e20636f756e7420766f74657300006000830152602082019050919050565b6000611fd860218361260c565b91507f566f74696e672068617320616c7265616479206265656e20636f6e647563746560008301527f64000000000000000000000000000000000000000000000000000000000000006020830152604082019050919050565b600061203e60338361260c565b91507f4f6e6c792054696d654c696e6520546f6b656e20686f6c646572732063616e2060008301527f70757420666f7274682050726f706f73616c73000000000000000000000000006020830152604082019050919050565b60006120a460218361260c565b91507f596f752063616e206e6f7420766f7465206f6e20746869732050726f706f736160008301527f6c000000000000000000000000000000000000000000000000000000000000006020830152604082019050919050565b600061210a601c8361260c565b91507f4f6e6c79204f776e65722043616e205669657720446561646c696e65000000006000830152602082019050919050565b6000610120830160008301516121566000860182612209565b5060208301516121696020860182611d7a565b50604083015184820360408601526121818282611da7565b91505060608301516121966060860182612209565b5060808301516121a96080860182612209565b5060a08301516121bc60a0860182611d7a565b5060c08301516121cf60c0860182611d7a565b5060e083015184820360e08601526121e78282611da7565b9150506101008301516121fe610100860182611ce7565b508091505092915050565b612212816126e2565b82525050565b612221816126e2565b82525050565b600060208201905061223c6000830184611cf6565b92915050565b6000602082019050818103600083015261225c8184611d05565b905092915050565b60006020820190506122796000830184611d89565b92915050565b60006020820190506122946000830184611d98565b92915050565b600060208201905081810360008301526122b381611e19565b9050919050565b600060208201905081810360008301526122d381611e7f565b9050919050565b600060208201905081810360008301526122f381611ee5565b9050919050565b6000602082019050818103600083015261231381611f25565b9050919050565b6000602082019050818103600083015261233381611f8b565b9050919050565b6000602082019050818103600083015261235381611fcb565b9050919050565b6000602082019050818103600083015261237381612031565b9050919050565b6000602082019050818103600083015261239381612097565b9050919050565b600060208201905081810360008301526123b3816120fd565b9050919050565b60006020820190506123cf6000830184612218565b92915050565b60006040820190506123ea6000830185612218565b6123f76020830184611d89565b9392505050565b600061016082019050612414600083018e612218565b612421602083018d611d89565b8181036040830152612433818c611de0565b9050612442606083018b612218565b61244f608083018a612218565b61245c60a0830189612218565b61246960c0830188612218565b61247660e0830187611d89565b612484610100830186611d89565b8181036101208301526124978185611de0565b90506124a7610140830184611cf6565b9c9b505050505050505050505050565b60006080820190506124cc6000830187612218565b81810360208301526124de8186611de0565b90506124ed6040830185612218565b6124fa6060830184611cf6565b95945050505050565b600060a0820190506125186000830188612218565b6125256020830187612218565b6125326040830186611cf6565b61253f6060830185612218565b61254c6080830184611d89565b9695505050505050565b6000604051905081810181811067ffffffffffffffff8211171561257d5761257c61285a565b5b8060405250919050565b600067ffffffffffffffff8211156125a2576125a161285a565b5b601f19601f8301169050602081019050919050565b6000819050602082019050919050565b600081519050919050565b600081519050919050565b6000602082019050919050565b600082825260208201905092915050565b600082825260208201905092915050565b600082825260208201905092915050565b6000612628826126e2565b9150612633836126e2565b9250827fffffffffffffffffffffffffffffffffffffffffffffffffffffffffffffffff03821115612668576126676127cd565b5b828201905092915050565b600061267e826126e2565b9150612689836126e2565b925082612699576126986127fc565b5b828204905092915050565b60006126af826126c2565b9050919050565b60008115159050919050565b600073ffffffffffffffffffffffffffffffffffffffff82169050919050565b6000819050919050565b60006126f7826126fe565b9050919050565b6000612709826126c2565b9050919050565b82818337600083830152505050565b60005b8381101561273d578082015181840152602081019050612722565b8381111561274c576000848401525b50505050565b6000600282049050600182168061276a57607f821691505b6020821081141561277e5761277d61282b565b5b50919050565b600061278f826126e2565b91507fffffffffffffffffffffffffffffffffffffffffffffffffffffffffffffffff8214156127c2576127c16127cd565b5b600182019050919050565b7f4e487b7100000000000000000000000000000000000000000000000000000000600052601160045260246000fd5b7f4e487b7100000000000000000000000000000000000000000000000000000000600052601260045260246000fd5b7f4e487b7100000000000000000000000000000000000000000000000000000000600052602260045260246000fd5b7f4e487b7100000000000000000000000000000000000000000000000000000000600052604160045260246000fd5b6000601f19601f8301169050919050565b6128a3816126a4565b81146128ae57600080fd5b50565b6128ba816126b6565b81146128c557600080fd5b50565b6128d1816126e2565b81146128dc57600080fd5b5056fea264697066735822122042b984cf2f727546708ea08d745cd35646cd9568aaab32766481302b6ca2b97964736f6c63430008000033",
  "linkReferences": {},
  "deployedLinkReferences": {}
}