{
  "_format": "hh-sol-artifact-1",
  "contractName": "DAO",
  "sourceName": "contracts/DAO.sol",
  "abi": [
    {
      "inputs": [
        {
          "internalType": "contract TimeLine",
          "name": "_timeLine",
          "type": "address"
        }
      ],
      "stateMutability": "nonpayable",
      "type": "constructor"
    },
    {
      "anonymous": false,
      "inputs": [
        {
          "indexed": false,
          "internalType": "uint256",
          "name": "votesUp",
          "type": "uint256"
        },
        {
          "indexed": false,
          "internalType": "uint256",
          "name": "votesDown",
          "type": "uint256"
        },
        {
          "indexed": false,
          "internalType": "address",
          "name": "voter",
          "type": "address"
        },
        {
          "indexed": false,
          "internalType": "uint256",
          "name": "proposal",
          "type": "uint256"
        },
        {
          "indexed": false,
          "internalType": "bool",
          "name": "votedFor",
          "type": "bool"
        }
      ],
      "name": "newVote",
      "type": "event"
    },
    {
      "anonymous": false,
      "inputs": [
        {
          "indexed": false,
          "internalType": "uint256",
          "name": "id",
          "type": "uint256"
        },
        {
          "indexed": false,
          "internalType": "bool",
          "name": "passed",
          "type": "bool"
        }
      ],
      "name": "proposalCount",
      "type": "event"
    },
    {
      "anonymous": false,
      "inputs": [
        {
          "indexed": false,
          "internalType": "uint256",
          "name": "id",
          "type": "uint256"
        },
        {
          "indexed": false,
          "internalType": "string",
          "name": "description",
          "type": "string"
        },
        {
          "indexed": false,
          "internalType": "uint256",
          "name": "maxVotes",
          "type": "uint256"
        },
        {
          "indexed": false,
          "internalType": "address",
          "name": "proposer",
          "type": "address"
        }
      ],
      "name": "proposalCreated",
      "type": "event"
    },
    {
      "inputs": [
        {
          "internalType": "uint256",
          "name": "",
          "type": "uint256"
        }
      ],
      "name": "Proposals",
      "outputs": [
        {
          "internalType": "uint256",
          "name": "id",
          "type": "uint256"
        },
        {
          "internalType": "bool",
          "name": "exists",
          "type": "bool"
        },
        {
          "internalType": "string",
          "name": "description",
          "type": "string"
        },
        {
          "internalType": "uint256",
          "name": "deadline",
          "type": "uint256"
        },
        {
          "internalType": "uint256",
          "name": "votesUp",
          "type": "uint256"
        },
        {
          "internalType": "uint256",
          "name": "votesDown",
          "type": "uint256"
        },
        {
          "internalType": "uint256",
          "name": "maxVotes",
          "type": "uint256"
        },
        {
          "internalType": "bool",
          "name": "countConducted",
          "type": "bool"
        },
        {
          "internalType": "bool",
          "name": "passed",
          "type": "bool"
        }
      ],
      "stateMutability": "view",
      "type": "function"
    },
    {
      "inputs": [
        {
          "internalType": "uint256",
          "name": "_id",
          "type": "uint256"
        }
      ],
      "name": "countVotes",
      "outputs": [],
      "stateMutability": "nonpayable",
      "type": "function"
    },
    {
      "inputs": [
        {
          "internalType": "string",
          "name": "_description",
          "type": "string"
        }
      ],
      "name": "createProposal",
      "outputs": [],
      "stateMutability": "nonpayable",
      "type": "function"
    },
    {
      "inputs": [],
      "name": "fetchAllProposals",
      "outputs": [
        {
          "components": [
            {
              "internalType": "uint256",
              "name": "id",
              "type": "uint256"
            },
            {
              "internalType": "bool",
              "name": "exists",
              "type": "bool"
            },
            {
              "internalType": "string",
              "name": "description",
              "type": "string"
            },
            {
              "internalType": "uint256",
              "name": "votesUp",
              "type": "uint256"
            },
            {
              "internalType": "uint256",
              "name": "votesDown",
              "type": "uint256"
            },
            {
              "internalType": "bool",
              "name": "passed",
              "type": "bool"
            },
            {
              "internalType": "bool",
              "name": "countConducted",
              "type": "bool"
            }
          ],
          "internalType": "struct DAO.proposalReturn[]",
          "name": "",
          "type": "tuple[]"
        }
      ],
      "stateMutability": "view",
      "type": "function"
    },
    {
      "inputs": [
        {
          "internalType": "uint256",
          "name": "_id",
          "type": "uint256"
        }
      ],
      "name": "isDeadLineMet",
      "outputs": [
        {
          "internalType": "bool",
          "name": "",
          "type": "bool"
        }
      ],
      "stateMutability": "view",
      "type": "function"
    },
    {
      "inputs": [],
      "name": "owner",
      "outputs": [
        {
          "internalType": "address",
          "name": "",
          "type": "address"
        }
      ],
      "stateMutability": "view",
      "type": "function"
    },
    {
      "inputs": [],
      "name": "proposalTotalCount",
      "outputs": [
        {
          "internalType": "uint256",
          "name": "_value",
          "type": "uint256"
        }
      ],
      "stateMutability": "view",
      "type": "function"
    },
    {
      "inputs": [],
      "name": "timeLine",
      "outputs": [
        {
          "internalType": "contract TimeLine",
          "name": "",
          "type": "address"
        }
      ],
      "stateMutability": "view",
      "type": "function"
    },
    {
      "inputs": [],
      "name": "totalProposal",
      "outputs": [
        {
          "internalType": "uint256",
          "name": "",
          "type": "uint256"
        }
      ],
      "stateMutability": "view",
      "type": "function"
    },
    {
      "inputs": [],
      "name": "totalVote",
      "outputs": [
        {
          "internalType": "uint256",
          "name": "",
          "type": "uint256"
        }
      ],
      "stateMutability": "view",
      "type": "function"
    },
    {
      "inputs": [
        {
          "internalType": "uint256",
          "name": "",
          "type": "uint256"
        }
      ],
      "name": "validTokens",
      "outputs": [
        {
          "internalType": "uint256",
          "name": "",
          "type": "uint256"
        }
      ],
      "stateMutability": "view",
      "type": "function"
    },
    {
      "inputs": [
        {
          "internalType": "uint256",
          "name": "_id",
          "type": "uint256"
        },
        {
          "internalType": "bool",
          "name": "_vote",
          "type": "bool"
        }
      ],
      "name": "voteOnProposal",
      "outputs": [],
      "stateMutability": "nonpayable",
      "type": "function"
    },
    {
      "inputs": [],
      "name": "voteTotalCount",
      "outputs": [
        {
          "internalType": "uint256",
          "name": "_value",
          "type": "uint256"
        }
      ],
      "stateMutability": "view",
      "type": "function"
    }
  ],
  "bytecode": "0x60806040523480156200001157600080fd5b50604051620024ee380380620024ee833981810160405281019062000037919062000121565b336000806101000a81548173ffffffffffffffffffffffffffffffffffffffff021916908373ffffffffffffffffffffffffffffffffffffffff16021790555080600360006101000a81548173ffffffffffffffffffffffffffffffffffffffff021916908373ffffffffffffffffffffffffffffffffffffffff16021790555060018081905550620000d66004620000f460201b620011e31760201c565b620000ed6005620000f460201b620011e31760201c565b50620001af565b6001816000016000828254019250508190555050565b6000815190506200011b8162000195565b92915050565b6000602082840312156200013457600080fd5b600062000144848285016200010a565b91505092915050565b60006200015a8262000175565b9050919050565b60006200016e826200014d565b9050919050565b600073ffffffffffffffffffffffffffffffffffffffff82169050919050565b620001a08162000161565b8114620001ac57600080fd5b50565b61232f80620001bf6000396000f3fe608060405234801561001057600080fd5b50600436106100cf5760003560e01c80638f91c7761161008c578063e9d3d16a11610066578063e9d3d16a14610208578063f1c5fd8214610238578063f1cea4c714610256578063f405d5c414610274576100cf565b80638f91c77614610182578063d1dbe7d8146101a0578063e4bdd57d146101d8576100cf565b80631614665c146100d45780631840f0ca146100f05780632d9a65f91461010c57806349c2a1a61461012a578063583f4160146101465780638da5cb5b14610164575b600080fd5b6100ee60048036038101906100e99190611775565b610292565b005b61010a60048036038101906101059190611723565b61053e565b005b6101146107c0565b6040516101219190611ce1565b60405180910390f35b610144600480360381019061013f91906116e2565b610bdc565b005b61014e610f75565b60405161015b9190611e59565b60405180910390f35b61016c610f81565b6040516101799190611cc6565b60405180910390f35b61018a610fa5565b6040516101979190611e59565b60405180910390f35b6101ba60048036038101906101b59190611723565b610fb1565b6040516101cf99989796959493929190611e9d565b60405180910390f35b6101f260048036038101906101ed9190611723565b6110ae565b6040516101ff9190611d03565b60405180910390f35b610222600480360381019061021d9190611723565b611177565b60405161022f9190611e59565b60405180910390f35b61024061119b565b60405161024d9190611e59565b60405180910390f35b61025e6111ac565b60405161026b9190611e59565b60405180910390f35b61027c6111bd565b6040516102899190611d1e565b60405180910390f35b6006600083815260200190815260200160002060010160009054906101000a900460ff166102f5576040517f08c379a00000000000000000000000000000000000000000000000000000000081526004016102ec90611d79565b60405180910390fd5b6102fe336111f9565b61033d576040517f08c379a000000000000000000000000000000000000000000000000000000000815260040161033490611e19565b60405180910390fd5b6006600083815260200190815260200160002060080160003373ffffffffffffffffffffffffffffffffffffffff1673ffffffffffffffffffffffffffffffffffffffff16815260200190815260200160002060009054906101000a900460ff16156103de576040517f08c379a00000000000000000000000000000000000000000000000000000000081526004016103d590611d39565b60405180910390fd5b6006600083815260200190815260200160002060030154431115610437576040517f08c379a000000000000000000000000000000000000000000000000000000000815260040161042e90611d99565b60405180910390fd5b6000600660008481526020019081526020016000209050811561047357806004016000815480929190610469906121cd565b919050555061048e565b806005016000815480929190610488906121cd565b91905055505b60018160080160003373ffffffffffffffffffffffffffffffffffffffff1673ffffffffffffffffffffffffffffffffffffffff16815260200190815260200160002060006101000a81548160ff0219169083151502179055507f97a3ed91f0b116dc155f238ac92aa5b825720a7bb096f53156e05d9c8ab6a30a81600401548260050154338686604051610527959493929190611f7d565b60405180910390a161053960056111e3565b505050565b60008054906101000a900473ffffffffffffffffffffffffffffffffffffffff1673ffffffffffffffffffffffffffffffffffffffff163373ffffffffffffffffffffffffffffffffffffffff16146105cc576040517f08c379a00000000000000000000000000000000000000000000000000000000081526004016105c390611db9565b60405180910390fd5b6006600082815260200190815260200160002060010160009054906101000a900460ff1661062f576040517f08c379a000000000000000000000000000000000000000000000000000000000815260040161062690611d79565b60405180910390fd5b6006600082815260200190815260200160002060030154421015610688576040517f08c379a000000000000000000000000000000000000000000000000000000000815260040161067f90611d59565b60405180910390fd5b6006600082815260200190815260200160002060090160009054906101000a900460ff16156106ec576040517f08c379a00000000000000000000000000000000000000000000000000000000081526004016106e390611dd9565b60405180910390fd5b60006006600083815260200190815260200160002090506006600083815260200190815260200160002060040154600660008481526020019081526020016000206005015410156107555760018160090160016101000a81548160ff0219169083151502179055505b60018160090160006101000a81548160ff0219169083151502179055507f4556fcf667ee704924eea359363d28f06708b744ad113340982b07ef9919fb91828260090160019054906101000a900460ff166040516107b4929190611e74565b60405180910390a15050565b606060006107ce60046113b8565b67ffffffffffffffff81111561080d577f4e487b7100000000000000000000000000000000000000000000000000000000600052604160045260246000fd5b60405190808252806020026020018201604052801561084657816020015b61083361148d565b81526020019060019003908161082b5790505b5090506000600190505b61085a60046113b8565b811015610bd45760066000828152602001908152602001600020600001548282815181106108b1577f4e487b7100000000000000000000000000000000000000000000000000000000600052603260045260246000fd5b602002602001015160000181815250506006600082815260200190815260200160002060010160009054906101000a900460ff1682828151811061091e577f4e487b7100000000000000000000000000000000000000000000000000000000600052603260045260246000fd5b602002602001015160200190151590811515815250506006600082815260200190815260200160002060020180546109559061219b565b80601f01602080910402602001604051908101604052809291908181526020018280546109819061219b565b80156109ce5780601f106109a3576101008083540402835291602001916109ce565b820191906000526020600020905b8154815290600101906020018083116109b157829003601f168201915b5050505050828281518110610a0c577f4e487b7100000000000000000000000000000000000000000000000000000000600052603260045260246000fd5b6020026020010151604001819052506006600082815260200190815260200160002060040154828281518110610a6b577f4e487b7100000000000000000000000000000000000000000000000000000000600052603260045260246000fd5b602002602001015160600181815250506006600082815260200190815260200160002060050154828281518110610acb577f4e487b7100000000000000000000000000000000000000000000000000000000600052603260045260246000fd5b602002602001015160800181815250506006600082815260200190815260200160002060090160019054906101000a900460ff16828281518110610b38577f4e487b7100000000000000000000000000000000000000000000000000000000600052603260045260246000fd5b602002602001015160a00190151590811515815250506006600082815260200190815260200160002060090160009054906101000a900460ff16828281518110610bab577f4e487b7100000000000000000000000000000000000000000000000000000000600052603260045260246000fd5b602002602001015160c00190151590811515815250508080610bcc906121cd565b915050610850565b508091505090565b610be5336113c6565b610c24576040517f08c379a0000000000000000000000000000000000000000000000000000000008152600401610c1b90611df9565b60405180910390fd5b6000600360009054906101000a900473ffffffffffffffffffffffffffffffffffffffff1673ffffffffffffffffffffffffffffffffffffffff16639a5fb32f6040518163ffffffff1660e01b815260040160206040518083038186803b158015610c8e57600080fd5b505afa158015610ca2573d6000803e3d6000fd5b505050506040513d601f19601f82011682018060405250810190610cc6919061174c565b905060008167ffffffffffffffff811115610d0a577f4e487b7100000000000000000000000000000000000000000000000000000000600052604160045260246000fd5b604051908082528060200260200182016040528015610d385781602001602082028036833780820191505090505b5090506000600190505b82811015610e7b57600360009054906101000a900473ffffffffffffffffffffffffffffffffffffffff1673ffffffffffffffffffffffffffffffffffffffff16633feb5f2b826040518263ffffffff1660e01b8152600401610da59190611e59565b60206040518083038186803b158015610dbd57600080fd5b505afa158015610dd1573d6000803e3d6000fd5b505050506040513d601f19601f82011682018060405250810190610df591906116b9565b828281518110610e2e577f4e487b7100000000000000000000000000000000000000000000000000000000600052603260045260246000fd5b602002602001019073ffffffffffffffffffffffffffffffffffffffff16908173ffffffffffffffffffffffffffffffffffffffff16815250508080610e73906121cd565b915050610d42565b5060006006600060015481526020019081526020016000209050600154816000018190555060018160010160006101000a81548160ff02191690831515021790555083816002019080519060200190610ed59291906114d0565b50610e1042610ee49190612097565b816003018190555081816006019080519060200190610f04929190611556565b508281600701819055507f3ec21697eb8018b62928e5f290d2bccf3af51e8b6cdf71fceab712977647bba9600154858533604051610f459493929190611f31565b60405180910390a160016000815480929190610f60906121cd565b9190505550610f6f60046111e3565b50505050565b60048060000154905081565b60008054906101000a900473ffffffffffffffffffffffffffffffffffffffff1681565b60058060000154905081565b60066020528060005260406000206000915090508060000154908060010160009054906101000a900460ff1690806002018054610fed9061219b565b80601f01602080910402602001604051908101604052809291908181526020018280546110199061219b565b80156110665780601f1061103b57610100808354040283529160200191611066565b820191906000526020600020905b81548152906001019060200180831161104957829003601f168201915b5050505050908060030154908060040154908060050154908060070154908060090160009054906101000a900460ff16908060090160019054906101000a900460ff16905089565b60008060009054906101000a900473ffffffffffffffffffffffffffffffffffffffff1673ffffffffffffffffffffffffffffffffffffffff163373ffffffffffffffffffffffffffffffffffffffff161461113f576040517f08c379a000000000000000000000000000000000000000000000000000000000815260040161113690611e39565b60405180910390fd5b6000600660008481526020019081526020016000209050428160030154111561116c576001915050611172565b60009150505b919050565b6002818154811061118757600080fd5b906000526020600020016000915090505481565b60006111a760046113b8565b905090565b60006111b860056113b8565b905090565b600360009054906101000a900473ffffffffffffffffffffffffffffffffffffffff1681565b6001816000016000828254019250508190555050565b600080600360009054906101000a900473ffffffffffffffffffffffffffffffffffffffff1673ffffffffffffffffffffffffffffffffffffffff16639a5fb32f6040518163ffffffff1660e01b815260040160206040518083038186803b15801561126457600080fd5b505afa158015611278573d6000803e3d6000fd5b505050506040513d601f19601f8201168201806040525081019061129c919061174c565b905060005b818110156113ac576000600360009054906101000a900473ffffffffffffffffffffffffffffffffffffffff1673ffffffffffffffffffffffffffffffffffffffff16633feb5f2b836040518263ffffffff1660e01b81526004016113069190611e59565b60206040518083038186803b15801561131e57600080fd5b505afa158015611332573d6000803e3d6000fd5b505050506040513d601f19601f8201168201806040525081019061135691906116b9565b90508473ffffffffffffffffffffffffffffffffffffffff168173ffffffffffffffffffffffffffffffffffffffff16141561139857600193505050506113b3565b5080806113a4906121cd565b9150506112a1565b5060009150505b919050565b600081600001549050919050565b600080600360009054906101000a900473ffffffffffffffffffffffffffffffffffffffff1673ffffffffffffffffffffffffffffffffffffffff166370a08231846040518263ffffffff1660e01b81526004016114249190611cc6565b60206040518083038186803b15801561143c57600080fd5b505afa158015611450573d6000803e3d6000fd5b505050506040513d601f19601f82011682018060405250810190611474919061174c565b11156114835760019050611488565b600090505b919050565b6040518060e00160405280600081526020016000151581526020016060815260200160008152602001600081526020016000151581526020016000151581525090565b8280546114dc9061219b565b90600052602060002090601f0160209004810192826114fe5760008555611545565b82601f1061151757805160ff1916838001178555611545565b82800160010185558215611545579182015b82811115611544578251825591602001919060010190611529565b5b50905061155291906115e0565b5090565b8280548282559060005260206000209081019282156115cf579160200282015b828111156115ce5782518260006101000a81548173ffffffffffffffffffffffffffffffffffffffff021916908373ffffffffffffffffffffffffffffffffffffffff16021790555091602001919060010190611576565b5b5090506115dc91906115e0565b5090565b5b808211156115f95760008160009055506001016115e1565b5090565b600061161061160b84612001565b611fd0565b90508281526020810184848401111561162857600080fd5b611633848285612159565b509392505050565b60008151905061164a816122b4565b92915050565b60008135905061165f816122cb565b92915050565b600082601f83011261167657600080fd5b81356116868482602086016115fd565b91505092915050565b60008135905061169e816122e2565b92915050565b6000815190506116b3816122e2565b92915050565b6000602082840312156116cb57600080fd5b60006116d98482850161163b565b91505092915050565b6000602082840312156116f457600080fd5b600082013567ffffffffffffffff81111561170e57600080fd5b61171a84828501611665565b91505092915050565b60006020828403121561173557600080fd5b60006117438482850161168f565b91505092915050565b60006020828403121561175e57600080fd5b600061176c848285016116a4565b91505092915050565b6000806040838503121561178857600080fd5b60006117968582860161168f565b92505060206117a785828601611650565b9150509250929050565b60006117bd8383611c0c565b905092915050565b6117ce816120ed565b82525050565b60006117df82612041565b6117e98185612064565b9350836020820285016117fb85612031565b8060005b85811015611837578484038952815161181885826117b1565b945061182383612057565b925060208a019950506001810190506117ff565b50829750879550505050505092915050565b611852816120ff565b82525050565b611861816120ff565b82525050565b61187081612135565b82525050565b60006118818261204c565b61188b8185612075565b935061189b818560208601612168565b6118a4816122a3565b840191505092915050565b60006118ba8261204c565b6118c48185612086565b93506118d4818560208601612168565b6118dd816122a3565b840191505092915050565b60006118f5602783612086565b91507f596f75206861766520616c726561647920766f746564206f6e2074686973205060008301527f726f706f73616c000000000000000000000000000000000000000000000000006020830152604082019050919050565b600061195b602e83612086565b91507f5468697320646561646c696e6520686173206e6f742070617373656420666f7260008301527f20746869732050726f706f73616c0000000000000000000000000000000000006020830152604082019050919050565b60006119c1601c83612086565b91507f546869732050726f706f73616c20646f6573206e6f74206578697374000000006000830152602082019050919050565b6000611a01602a83612086565b91507f5468697320646561646c696e65206861732070617373656420666f722074686960008301527f732050726f706f73616c000000000000000000000000000000000000000000006020830152604082019050919050565b6000611a67601e83612086565b91507f4f6e6c7920746865206f776e65722063616e20636f756e7420766f74657300006000830152602082019050919050565b6000611aa7602183612086565b91507f566f74696e672068617320616c7265616479206265656e20636f6e647563746560008301527f64000000000000000000000000000000000000000000000000000000000000006020830152604082019050919050565b6000611b0d603383612086565b91507f4f6e6c792054696d654c696e6520546f6b656e20686f6c646572732063616e2060008301527f70757420666f7274682050726f706f73616c73000000000000000000000000006020830152604082019050919050565b6000611b73602183612086565b91507f596f752063616e206e6f7420766f7465206f6e20746869732050726f706f736160008301527f6c000000000000000000000000000000000000000000000000000000000000006020830152604082019050919050565b6000611bd9601c83612086565b91507f4f6e6c79204f776e65722043616e205669657720446561646c696e65000000006000830152602082019050919050565b600060e083016000830151611c246000860182611ca8565b506020830151611c376020860182611849565b5060408301518482036040860152611c4f8282611876565b9150506060830151611c646060860182611ca8565b506080830151611c776080860182611ca8565b5060a0830151611c8a60a0860182611849565b5060c0830151611c9d60c0860182611849565b508091505092915050565b611cb18161212b565b82525050565b611cc08161212b565b82525050565b6000602082019050611cdb60008301846117c5565b92915050565b60006020820190508181036000830152611cfb81846117d4565b905092915050565b6000602082019050611d186000830184611858565b92915050565b6000602082019050611d336000830184611867565b92915050565b60006020820190508181036000830152611d52816118e8565b9050919050565b60006020820190508181036000830152611d728161194e565b9050919050565b60006020820190508181036000830152611d92816119b4565b9050919050565b60006020820190508181036000830152611db2816119f4565b9050919050565b60006020820190508181036000830152611dd281611a5a565b9050919050565b60006020820190508181036000830152611df281611a9a565b9050919050565b60006020820190508181036000830152611e1281611b00565b9050919050565b60006020820190508181036000830152611e3281611b66565b9050919050565b60006020820190508181036000830152611e5281611bcc565b9050919050565b6000602082019050611e6e6000830184611cb7565b92915050565b6000604082019050611e896000830185611cb7565b611e966020830184611858565b9392505050565b600061012082019050611eb3600083018c611cb7565b611ec0602083018b611858565b8181036040830152611ed2818a6118af565b9050611ee16060830189611cb7565b611eee6080830188611cb7565b611efb60a0830187611cb7565b611f0860c0830186611cb7565b611f1560e0830185611858565b611f23610100830184611858565b9a9950505050505050505050565b6000608082019050611f466000830187611cb7565b8181036020830152611f5881866118af565b9050611f676040830185611cb7565b611f7460608301846117c5565b95945050505050565b600060a082019050611f926000830188611cb7565b611f9f6020830187611cb7565b611fac60408301866117c5565b611fb96060830185611cb7565b611fc66080830184611858565b9695505050505050565b6000604051905081810181811067ffffffffffffffff82111715611ff757611ff6612274565b5b8060405250919050565b600067ffffffffffffffff82111561201c5761201b612274565b5b601f19601f8301169050602081019050919050565b6000819050602082019050919050565b600081519050919050565b600081519050919050565b6000602082019050919050565b600082825260208201905092915050565b600082825260208201905092915050565b600082825260208201905092915050565b60006120a28261212b565b91506120ad8361212b565b9250827fffffffffffffffffffffffffffffffffffffffffffffffffffffffffffffffff038211156120e2576120e1612216565b5b828201905092915050565b60006120f88261210b565b9050919050565b60008115159050919050565b600073ffffffffffffffffffffffffffffffffffffffff82169050919050565b6000819050919050565b600061214082612147565b9050919050565b60006121528261210b565b9050919050565b82818337600083830152505050565b60005b8381101561218657808201518184015260208101905061216b565b83811115612195576000848401525b50505050565b600060028204905060018216806121b357607f821691505b602082108114156121c7576121c6612245565b5b50919050565b60006121d88261212b565b91507fffffffffffffffffffffffffffffffffffffffffffffffffffffffffffffffff82141561220b5761220a612216565b5b600182019050919050565b7f4e487b7100000000000000000000000000000000000000000000000000000000600052601160045260246000fd5b7f4e487b7100000000000000000000000000000000000000000000000000000000600052602260045260246000fd5b7f4e487b7100000000000000000000000000000000000000000000000000000000600052604160045260246000fd5b6000601f19601f8301169050919050565b6122bd816120ed565b81146122c857600080fd5b50565b6122d4816120ff565b81146122df57600080fd5b50565b6122eb8161212b565b81146122f657600080fd5b5056fea2646970667358221220aaa7ab4040d1e373854578f2ebf8d26914f99293481af8991ca2ada5a88a830d64736f6c63430008000033",
  "linkReferences": {},
  "deployedLinkReferences": {}
}