{
  "_format": "hh-sol-artifact-1",
  "contractName": "DAO",
  "sourceName": "contracts/DAO.sol",
  "abi": [
    {
      "inputs": [
        {
          "internalType": "contract TimeLine",
          "name": "_timeLine",
          "type": "address"
        }
      ],
      "stateMutability": "nonpayable",
      "type": "constructor"
    },
    {
      "anonymous": false,
      "inputs": [
        {
          "indexed": false,
          "internalType": "uint256",
          "name": "votesUp",
          "type": "uint256"
        },
        {
          "indexed": false,
          "internalType": "uint256",
          "name": "votesDown",
          "type": "uint256"
        },
        {
          "indexed": false,
          "internalType": "address",
          "name": "voter",
          "type": "address"
        },
        {
          "indexed": false,
          "internalType": "uint256",
          "name": "proposal",
          "type": "uint256"
        },
        {
          "indexed": false,
          "internalType": "bool",
          "name": "votedFor",
          "type": "bool"
        }
      ],
      "name": "newVote",
      "type": "event"
    },
    {
      "anonymous": false,
      "inputs": [
        {
          "indexed": false,
          "internalType": "uint256",
          "name": "id",
          "type": "uint256"
        },
        {
          "indexed": false,
          "internalType": "bool",
          "name": "passed",
          "type": "bool"
        }
      ],
      "name": "proposalCount",
      "type": "event"
    },
    {
      "anonymous": false,
      "inputs": [
        {
          "indexed": false,
          "internalType": "uint256",
          "name": "id",
          "type": "uint256"
        },
        {
          "indexed": false,
          "internalType": "string",
          "name": "description",
          "type": "string"
        },
        {
          "indexed": false,
          "internalType": "uint256",
          "name": "maxVotes",
          "type": "uint256"
        },
        {
          "indexed": false,
          "internalType": "address",
          "name": "proposer",
          "type": "address"
        }
      ],
      "name": "proposalCreated",
      "type": "event"
    },
    {
      "inputs": [
        {
          "internalType": "uint256",
          "name": "",
          "type": "uint256"
        }
      ],
      "name": "Proposals",
      "outputs": [
        {
          "internalType": "uint256",
          "name": "id",
          "type": "uint256"
        },
        {
          "internalType": "bool",
          "name": "exists",
          "type": "bool"
        },
        {
          "internalType": "string",
          "name": "description",
          "type": "string"
        },
        {
          "internalType": "uint256",
          "name": "deadline",
          "type": "uint256"
        },
        {
          "internalType": "uint256",
          "name": "votesUp",
          "type": "uint256"
        },
        {
          "internalType": "uint256",
          "name": "votesDown",
          "type": "uint256"
        },
        {
          "internalType": "uint256",
          "name": "maxVotes",
          "type": "uint256"
        },
        {
          "internalType": "bool",
          "name": "countConducted",
          "type": "bool"
        },
        {
          "internalType": "bool",
          "name": "passed",
          "type": "bool"
        },
        {
          "internalType": "string",
          "name": "status",
          "type": "string"
        }
      ],
      "stateMutability": "view",
      "type": "function"
    },
    {
      "inputs": [
        {
          "internalType": "uint256",
          "name": "_id",
          "type": "uint256"
        }
      ],
      "name": "countVotes",
      "outputs": [],
      "stateMutability": "nonpayable",
      "type": "function"
    },
    {
      "inputs": [
        {
          "internalType": "string",
          "name": "_description",
          "type": "string"
        }
      ],
      "name": "createProposal",
      "outputs": [],
      "stateMutability": "nonpayable",
      "type": "function"
    },
    {
      "inputs": [],
      "name": "fetchAllProposals",
      "outputs": [
        {
          "components": [
            {
              "internalType": "uint256",
              "name": "id",
              "type": "uint256"
            },
            {
              "internalType": "bool",
              "name": "exists",
              "type": "bool"
            },
            {
              "internalType": "string",
              "name": "description",
              "type": "string"
            },
            {
              "internalType": "uint256",
              "name": "votesUp",
              "type": "uint256"
            },
            {
              "internalType": "uint256",
              "name": "votesDown",
              "type": "uint256"
            },
            {
              "internalType": "bool",
              "name": "passed",
              "type": "bool"
            },
            {
              "internalType": "bool",
              "name": "countConducted",
              "type": "bool"
            },
            {
              "internalType": "string",
              "name": "status",
              "type": "string"
            }
          ],
          "internalType": "struct DAO.proposalReturn[]",
          "name": "",
          "type": "tuple[]"
        }
      ],
      "stateMutability": "view",
      "type": "function"
    },
    {
      "inputs": [
        {
          "internalType": "uint256",
          "name": "_id",
          "type": "uint256"
        }
      ],
      "name": "isDeadLineMet",
      "outputs": [
        {
          "internalType": "bool",
          "name": "",
          "type": "bool"
        }
      ],
      "stateMutability": "view",
      "type": "function"
    },
    {
      "inputs": [],
      "name": "owner",
      "outputs": [
        {
          "internalType": "address",
          "name": "",
          "type": "address"
        }
      ],
      "stateMutability": "view",
      "type": "function"
    },
    {
      "inputs": [],
      "name": "proposalTotalCount",
      "outputs": [
        {
          "internalType": "uint256",
          "name": "_value",
          "type": "uint256"
        }
      ],
      "stateMutability": "view",
      "type": "function"
    },
    {
      "inputs": [],
      "name": "timeLine",
      "outputs": [
        {
          "internalType": "contract TimeLine",
          "name": "",
          "type": "address"
        }
      ],
      "stateMutability": "view",
      "type": "function"
    },
    {
      "inputs": [],
      "name": "totalProposal",
      "outputs": [
        {
          "internalType": "uint256",
          "name": "",
          "type": "uint256"
        }
      ],
      "stateMutability": "view",
      "type": "function"
    },
    {
      "inputs": [],
      "name": "totalVote",
      "outputs": [
        {
          "internalType": "uint256",
          "name": "",
          "type": "uint256"
        }
      ],
      "stateMutability": "view",
      "type": "function"
    },
    {
      "inputs": [
        {
          "internalType": "uint256",
          "name": "",
          "type": "uint256"
        }
      ],
      "name": "validTokens",
      "outputs": [
        {
          "internalType": "uint256",
          "name": "",
          "type": "uint256"
        }
      ],
      "stateMutability": "view",
      "type": "function"
    },
    {
      "inputs": [
        {
          "internalType": "uint256",
          "name": "_id",
          "type": "uint256"
        },
        {
          "internalType": "bool",
          "name": "_vote",
          "type": "bool"
        }
      ],
      "name": "voteOnProposal",
      "outputs": [],
      "stateMutability": "nonpayable",
      "type": "function"
    },
    {
      "inputs": [],
      "name": "voteTotalCount",
      "outputs": [
        {
          "internalType": "uint256",
          "name": "_value",
          "type": "uint256"
        }
      ],
      "stateMutability": "view",
      "type": "function"
    }
  ],
  "bytecode": "0x60806040523480156200001157600080fd5b506040516200278b3803806200278b833981810160405281019062000037919062000121565b336000806101000a81548173ffffffffffffffffffffffffffffffffffffffff021916908373ffffffffffffffffffffffffffffffffffffffff16021790555080600360006101000a81548173ffffffffffffffffffffffffffffffffffffffff021916908373ffffffffffffffffffffffffffffffffffffffff16021790555060018081905550620000d66004620000f460201b620014471760201c565b620000ed6005620000f460201b620014471760201c565b50620001af565b6001816000016000828254019250508190555050565b6000815190506200011b8162000195565b92915050565b6000602082840312156200013457600080fd5b600062000144848285016200010a565b91505092915050565b60006200015a8262000175565b9050919050565b60006200016e826200014d565b9050919050565b600073ffffffffffffffffffffffffffffffffffffffff82169050919050565b620001a08162000161565b8114620001ac57600080fd5b50565b6125cc80620001bf6000396000f3fe608060405234801561001057600080fd5b50600436106100cf5760003560e01c80638f91c7761161008c578063e9d3d16a11610066578063e9d3d16a14610209578063f1c5fd8214610239578063f1cea4c714610257578063f405d5c414610275576100cf565b80638f91c77614610182578063d1dbe7d8146101a0578063e4bdd57d146101d9576100cf565b80631614665c146100d45780631840f0ca146100f05780632d9a65f91461010c57806349c2a1a61461012a578063583f4160146101465780638da5cb5b14610164575b600080fd5b6100ee60048036038101906100e991906119e1565b610293565b005b61010a6004803603810190610105919061198f565b61053f565b005b610114610862565b6040516101219190611f68565b60405180910390f35b610144600480360381019061013f919061194e565b610d65565b005b61014e61114b565b60405161015b91906120e0565b60405180910390f35b61016c611157565b6040516101799190611f4d565b60405180910390f35b61018a61117b565b60405161019791906120e0565b60405180910390f35b6101ba60048036038101906101b5919061198f565b611187565b6040516101d09a99989796959493929190612124565b60405180910390f35b6101f360048036038101906101ee919061198f565b611312565b6040516102009190611f8a565b60405180910390f35b610223600480360381019061021e919061198f565b6113db565b60405161023091906120e0565b60405180910390f35b6102416113ff565b60405161024e91906120e0565b60405180910390f35b61025f611410565b60405161026c91906120e0565b60405180910390f35b61027d611421565b60405161028a9190611fa5565b60405180910390f35b6006600083815260200190815260200160002060010160009054906101000a900460ff166102f6576040517f08c379a00000000000000000000000000000000000000000000000000000000081526004016102ed90612000565b60405180910390fd5b6102ff3361145d565b61033e576040517f08c379a0000000000000000000000000000000000000000000000000000000008152600401610335906120a0565b60405180910390fd5b6006600083815260200190815260200160002060080160003373ffffffffffffffffffffffffffffffffffffffff1673ffffffffffffffffffffffffffffffffffffffff16815260200190815260200160002060009054906101000a900460ff16156103df576040517f08c379a00000000000000000000000000000000000000000000000000000000081526004016103d690611fc0565b60405180910390fd5b6006600083815260200190815260200160002060030154431115610438576040517f08c379a000000000000000000000000000000000000000000000000000000000815260040161042f90612020565b60405180910390fd5b600060066000848152602001908152602001600020905081156104745780600401600081548092919061046a9061246a565b919050555061048f565b8060050160008154809291906104899061246a565b91905055505b60018160080160003373ffffffffffffffffffffffffffffffffffffffff1673ffffffffffffffffffffffffffffffffffffffff16815260200190815260200160002060006101000a81548160ff0219169083151502179055507f97a3ed91f0b116dc155f238ac92aa5b825720a7bb096f53156e05d9c8ab6a30a8160040154826005015433868660405161052895949392919061221a565b60405180910390a161053a6005611447565b505050565b60008054906101000a900473ffffffffffffffffffffffffffffffffffffffff1673ffffffffffffffffffffffffffffffffffffffff163373ffffffffffffffffffffffffffffffffffffffff16146105cd576040517f08c379a00000000000000000000000000000000000000000000000000000000081526004016105c490612040565b60405180910390fd5b6006600082815260200190815260200160002060010160009054906101000a900460ff16610630576040517f08c379a000000000000000000000000000000000000000000000000000000000815260040161062790612000565b60405180910390fd5b6006600082815260200190815260200160002060030154421015610689576040517f08c379a000000000000000000000000000000000000000000000000000000000815260040161068090611fe0565b60405180910390fd5b6006600082815260200190815260200160002060090160009054906101000a900460ff16156106ed576040517f08c379a00000000000000000000000000000000000000000000000000000000081526004016106e490612060565b60405180910390fd5b60006006600083815260200190815260200160002090506006600083815260200190815260200160002060040154600660008481526020019081526020016000206005015410156107a85760018160090160016101000a81548160ff0219169083151502179055506040518060400160405280600881526020017f416363657074656400000000000000000000000000000000000000000000000081525081600a0190805190602001906107a29291906116f1565b506107f7565b6040518060400160405280600881526020017f52656a656374656400000000000000000000000000000000000000000000000081525081600a0190805190602001906107f59291906116f1565b505b60018160090160006101000a81548160ff0219169083151502179055507f4556fcf667ee704924eea359363d28f06708b744ad113340982b07ef9919fb91828260090160019054906101000a900460ff166040516108569291906120fb565b60405180910390a15050565b60606000610870600461161c565b67ffffffffffffffff8111156108af577f4e487b7100000000000000000000000000000000000000000000000000000000600052604160045260246000fd5b6040519080825280602002602001820160405280156108e857816020015b6108d5611777565b8152602001906001900390816108cd5790505b5090506000600190505b6108fc600461161c565b811015610d5d576006600082815260200190815260200160002060000154828281518110610953577f4e487b7100000000000000000000000000000000000000000000000000000000600052603260045260246000fd5b602002602001015160000181815250506006600082815260200190815260200160002060010160009054906101000a900460ff168282815181106109c0577f4e487b7100000000000000000000000000000000000000000000000000000000600052603260045260246000fd5b602002602001015160200190151590811515815250506006600082815260200190815260200160002060020180546109f790612438565b80601f0160208091040260200160405190810160405280929190818152602001828054610a2390612438565b8015610a705780601f10610a4557610100808354040283529160200191610a70565b820191906000526020600020905b815481529060010190602001808311610a5357829003601f168201915b5050505050828281518110610aae577f4e487b7100000000000000000000000000000000000000000000000000000000600052603260045260246000fd5b6020026020010151604001819052506006600082815260200190815260200160002060040154828281518110610b0d577f4e487b7100000000000000000000000000000000000000000000000000000000600052603260045260246000fd5b602002602001015160600181815250506006600082815260200190815260200160002060050154828281518110610b6d577f4e487b7100000000000000000000000000000000000000000000000000000000600052603260045260246000fd5b602002602001015160800181815250506006600082815260200190815260200160002060090160019054906101000a900460ff16828281518110610bda577f4e487b7100000000000000000000000000000000000000000000000000000000600052603260045260246000fd5b602002602001015160a00190151590811515815250506006600082815260200190815260200160002060090160009054906101000a900460ff16828281518110610c4d577f4e487b7100000000000000000000000000000000000000000000000000000000600052603260045260246000fd5b602002602001015160c001901515908115158152505060066000828152602001908152602001600020600a018054610c8490612438565b80601f0160208091040260200160405190810160405280929190818152602001828054610cb090612438565b8015610cfd5780601f10610cd257610100808354040283529160200191610cfd565b820191906000526020600020905b815481529060010190602001808311610ce057829003601f168201915b5050505050828281518110610d3b577f4e487b7100000000000000000000000000000000000000000000000000000000600052603260045260246000fd5b602002602001015160e001819052508080610d559061246a565b9150506108f2565b508091505090565b610d6e3361162a565b610dad576040517f08c379a0000000000000000000000000000000000000000000000000000000008152600401610da490612080565b60405180910390fd5b6000600360009054906101000a900473ffffffffffffffffffffffffffffffffffffffff1673ffffffffffffffffffffffffffffffffffffffff16639a5fb32f6040518163ffffffff1660e01b815260040160206040518083038186803b158015610e1757600080fd5b505afa158015610e2b573d6000803e3d6000fd5b505050506040513d601f19601f82011682018060405250810190610e4f91906119b8565b905060008167ffffffffffffffff811115610e93577f4e487b7100000000000000000000000000000000000000000000000000000000600052604160045260246000fd5b604051908082528060200260200182016040528015610ec15781602001602082028036833780820191505090505b5090506000600190505b8281101561100457600360009054906101000a900473ffffffffffffffffffffffffffffffffffffffff1673ffffffffffffffffffffffffffffffffffffffff16633feb5f2b826040518263ffffffff1660e01b8152600401610f2e91906120e0565b60206040518083038186803b158015610f4657600080fd5b505afa158015610f5a573d6000803e3d6000fd5b505050506040513d601f19601f82011682018060405250810190610f7e9190611925565b828281518110610fb7577f4e487b7100000000000000000000000000000000000000000000000000000000600052603260045260246000fd5b602002602001019073ffffffffffffffffffffffffffffffffffffffff16908173ffffffffffffffffffffffffffffffffffffffff16815250508080610ffc9061246a565b915050610ecb565b5060006006600060015481526020019081526020016000209050600154816000018190555060018160010160006101000a81548160ff0219169083151502179055508381600201908051906020019061105e9291906116f1565b5060064261106c9190612334565b81600301819055508181600601908051906020019061108c9291906117c2565b508281600701819055506040518060400160405280600781526020017f4f6e676f696e670000000000000000000000000000000000000000000000000081525081600a0190805190602001906110e39291906116f1565b507f3ec21697eb8018b62928e5f290d2bccf3af51e8b6cdf71fceab712977647bba960015485853360405161111b94939291906121ce565b60405180910390a1600160008154809291906111369061246a565b91905055506111456004611447565b50505050565b60048060000154905081565b60008054906101000a900473ffffffffffffffffffffffffffffffffffffffff1681565b60058060000154905081565b60066020528060005260406000206000915090508060000154908060010160009054906101000a900460ff16908060020180546111c390612438565b80601f01602080910402602001604051908101604052809291908181526020018280546111ef90612438565b801561123c5780601f106112115761010080835404028352916020019161123c565b820191906000526020600020905b81548152906001019060200180831161121f57829003601f168201915b5050505050908060030154908060040154908060050154908060070154908060090160009054906101000a900460ff16908060090160019054906101000a900460ff169080600a01805461128f90612438565b80601f01602080910402602001604051908101604052809291908181526020018280546112bb90612438565b80156113085780601f106112dd57610100808354040283529160200191611308565b820191906000526020600020905b8154815290600101906020018083116112eb57829003601f168201915b505050505090508a565b60008060009054906101000a900473ffffffffffffffffffffffffffffffffffffffff1673ffffffffffffffffffffffffffffffffffffffff163373ffffffffffffffffffffffffffffffffffffffff16146113a3576040517f08c379a000000000000000000000000000000000000000000000000000000000815260040161139a906120c0565b60405180910390fd5b600060066000848152602001908152602001600020905042816003015411156113d05760019150506113d6565b60009150505b919050565b600281815481106113eb57600080fd5b906000526020600020016000915090505481565b600061140b600461161c565b905090565b600061141c600561161c565b905090565b600360009054906101000a900473ffffffffffffffffffffffffffffffffffffffff1681565b6001816000016000828254019250508190555050565b600080600360009054906101000a900473ffffffffffffffffffffffffffffffffffffffff1673ffffffffffffffffffffffffffffffffffffffff16639a5fb32f6040518163ffffffff1660e01b815260040160206040518083038186803b1580156114c857600080fd5b505afa1580156114dc573d6000803e3d6000fd5b505050506040513d601f19601f8201168201806040525081019061150091906119b8565b905060005b81811015611610576000600360009054906101000a900473ffffffffffffffffffffffffffffffffffffffff1673ffffffffffffffffffffffffffffffffffffffff16633feb5f2b836040518263ffffffff1660e01b815260040161156a91906120e0565b60206040518083038186803b15801561158257600080fd5b505afa158015611596573d6000803e3d6000fd5b505050506040513d601f19601f820116820180604052508101906115ba9190611925565b90508473ffffffffffffffffffffffffffffffffffffffff168173ffffffffffffffffffffffffffffffffffffffff1614156115fc5760019350505050611617565b5080806116089061246a565b915050611505565b5060009150505b919050565b600081600001549050919050565b600080600360009054906101000a900473ffffffffffffffffffffffffffffffffffffffff1673ffffffffffffffffffffffffffffffffffffffff166370a08231846040518263ffffffff1660e01b81526004016116889190611f4d565b60206040518083038186803b1580156116a057600080fd5b505afa1580156116b4573d6000803e3d6000fd5b505050506040513d601f19601f820116820180604052508101906116d891906119b8565b11156116e757600190506116ec565b600090505b919050565b8280546116fd90612438565b90600052602060002090601f01602090048101928261171f5760008555611766565b82601f1061173857805160ff1916838001178555611766565b82800160010185558215611766579182015b8281111561176557825182559160200191906001019061174a565b5b509050611773919061184c565b5090565b60405180610100016040528060008152602001600015158152602001606081526020016000815260200160008152602001600015158152602001600015158152602001606081525090565b82805482825590600052602060002090810192821561183b579160200282015b8281111561183a5782518260006101000a81548173ffffffffffffffffffffffffffffffffffffffff021916908373ffffffffffffffffffffffffffffffffffffffff160217905550916020019190600101906117e2565b5b509050611848919061184c565b5090565b5b8082111561186557600081600090555060010161184d565b5090565b600061187c6118778461229e565b61226d565b90508281526020810184848401111561189457600080fd5b61189f8482856123f6565b509392505050565b6000815190506118b681612551565b92915050565b6000813590506118cb81612568565b92915050565b600082601f8301126118e257600080fd5b81356118f2848260208601611869565b91505092915050565b60008135905061190a8161257f565b92915050565b60008151905061191f8161257f565b92915050565b60006020828403121561193757600080fd5b6000611945848285016118a7565b91505092915050565b60006020828403121561196057600080fd5b600082013567ffffffffffffffff81111561197a57600080fd5b611986848285016118d1565b91505092915050565b6000602082840312156119a157600080fd5b60006119af848285016118fb565b91505092915050565b6000602082840312156119ca57600080fd5b60006119d884828501611910565b91505092915050565b600080604083850312156119f457600080fd5b6000611a02858286016118fb565b9250506020611a13858286016118bc565b9150509250929050565b6000611a298383611e78565b905092915050565b611a3a8161238a565b82525050565b6000611a4b826122de565b611a558185612301565b935083602082028501611a67856122ce565b8060005b85811015611aa35784840389528151611a848582611a1d565b9450611a8f836122f4565b925060208a01995050600181019050611a6b565b50829750879550505050505092915050565b611abe8161239c565b82525050565b611acd8161239c565b82525050565b611adc816123d2565b82525050565b6000611aed826122e9565b611af78185612312565b9350611b07818560208601612405565b611b1081612540565b840191505092915050565b6000611b26826122e9565b611b308185612323565b9350611b40818560208601612405565b611b4981612540565b840191505092915050565b6000611b61602783612323565b91507f596f75206861766520616c726561647920766f746564206f6e2074686973205060008301527f726f706f73616c000000000000000000000000000000000000000000000000006020830152604082019050919050565b6000611bc7602e83612323565b91507f5468697320646561646c696e6520686173206e6f742070617373656420666f7260008301527f20746869732050726f706f73616c0000000000000000000000000000000000006020830152604082019050919050565b6000611c2d601c83612323565b91507f546869732050726f706f73616c20646f6573206e6f74206578697374000000006000830152602082019050919050565b6000611c6d602a83612323565b91507f5468697320646561646c696e65206861732070617373656420666f722074686960008301527f732050726f706f73616c000000000000000000000000000000000000000000006020830152604082019050919050565b6000611cd3601e83612323565b91507f4f6e6c7920746865206f776e65722063616e20636f756e7420766f74657300006000830152602082019050919050565b6000611d13602183612323565b91507f566f74696e672068617320616c7265616479206265656e20636f6e647563746560008301527f64000000000000000000000000000000000000000000000000000000000000006020830152604082019050919050565b6000611d79603383612323565b91507f4f6e6c792054696d654c696e6520546f6b656e20686f6c646572732063616e2060008301527f70757420666f7274682050726f706f73616c73000000000000000000000000006020830152604082019050919050565b6000611ddf602183612323565b91507f596f752063616e206e6f7420766f7465206f6e20746869732050726f706f736160008301527f6c000000000000000000000000000000000000000000000000000000000000006020830152604082019050919050565b6000611e45601c83612323565b91507f4f6e6c79204f776e65722043616e205669657720446561646c696e65000000006000830152602082019050919050565b600061010083016000830151611e916000860182611f2f565b506020830151611ea46020860182611ab5565b5060408301518482036040860152611ebc8282611ae2565b9150506060830151611ed16060860182611f2f565b506080830151611ee46080860182611f2f565b5060a0830151611ef760a0860182611ab5565b5060c0830151611f0a60c0860182611ab5565b5060e083015184820360e0860152611f228282611ae2565b9150508091505092915050565b611f38816123c8565b82525050565b611f47816123c8565b82525050565b6000602082019050611f626000830184611a31565b92915050565b60006020820190508181036000830152611f828184611a40565b905092915050565b6000602082019050611f9f6000830184611ac4565b92915050565b6000602082019050611fba6000830184611ad3565b92915050565b60006020820190508181036000830152611fd981611b54565b9050919050565b60006020820190508181036000830152611ff981611bba565b9050919050565b6000602082019050818103600083015261201981611c20565b9050919050565b6000602082019050818103600083015261203981611c60565b9050919050565b6000602082019050818103600083015261205981611cc6565b9050919050565b6000602082019050818103600083015261207981611d06565b9050919050565b6000602082019050818103600083015261209981611d6c565b9050919050565b600060208201905081810360008301526120b981611dd2565b9050919050565b600060208201905081810360008301526120d981611e38565b9050919050565b60006020820190506120f56000830184611f3e565b92915050565b60006040820190506121106000830185611f3e565b61211d6020830184611ac4565b9392505050565b60006101408201905061213a600083018d611f3e565b612147602083018c611ac4565b8181036040830152612159818b611b1b565b9050612168606083018a611f3e565b6121756080830189611f3e565b61218260a0830188611f3e565b61218f60c0830187611f3e565b61219c60e0830186611ac4565b6121aa610100830185611ac4565b8181036101208301526121bd8184611b1b565b90509b9a5050505050505050505050565b60006080820190506121e36000830187611f3e565b81810360208301526121f58186611b1b565b90506122046040830185611f3e565b6122116060830184611a31565b95945050505050565b600060a08201905061222f6000830188611f3e565b61223c6020830187611f3e565b6122496040830186611a31565b6122566060830185611f3e565b6122636080830184611ac4565b9695505050505050565b6000604051905081810181811067ffffffffffffffff8211171561229457612293612511565b5b8060405250919050565b600067ffffffffffffffff8211156122b9576122b8612511565b5b601f19601f8301169050602081019050919050565b6000819050602082019050919050565b600081519050919050565b600081519050919050565b6000602082019050919050565b600082825260208201905092915050565b600082825260208201905092915050565b600082825260208201905092915050565b600061233f826123c8565b915061234a836123c8565b9250827fffffffffffffffffffffffffffffffffffffffffffffffffffffffffffffffff0382111561237f5761237e6124b3565b5b828201905092915050565b6000612395826123a8565b9050919050565b60008115159050919050565b600073ffffffffffffffffffffffffffffffffffffffff82169050919050565b6000819050919050565b60006123dd826123e4565b9050919050565b60006123ef826123a8565b9050919050565b82818337600083830152505050565b60005b83811015612423578082015181840152602081019050612408565b83811115612432576000848401525b50505050565b6000600282049050600182168061245057607f821691505b60208210811415612464576124636124e2565b5b50919050565b6000612475826123c8565b91507fffffffffffffffffffffffffffffffffffffffffffffffffffffffffffffffff8214156124a8576124a76124b3565b5b600182019050919050565b7f4e487b7100000000000000000000000000000000000000000000000000000000600052601160045260246000fd5b7f4e487b7100000000000000000000000000000000000000000000000000000000600052602260045260246000fd5b7f4e487b7100000000000000000000000000000000000000000000000000000000600052604160045260246000fd5b6000601f19601f8301169050919050565b61255a8161238a565b811461256557600080fd5b50565b6125718161239c565b811461257c57600080fd5b50565b612588816123c8565b811461259357600080fd5b5056fea26469706673582212205713de26fa978b4e43b990b7075fbbc81ba85698e3a616bc77cca8dce2ba35fd64736f6c63430008000033",
  "linkReferences": {},
  "deployedLinkReferences": {}
}