{
    "_format": "hh-sol-artifact-1",
    "contractName": "TimeLine",
    "sourceName": "contracts/TimeLine.sol",
    "abi": [
        {
            "inputs": [],
            "stateMutability": "nonpayable",
            "type": "constructor"
        },
        {
            "anonymous": false,
            "inputs": [
                {
                    "indexed": true,
                    "internalType": "address",
                    "name": "_owner",
                    "type": "address"
                },
                {
                    "indexed": true,
                    "internalType": "address",
                    "name": "_spender",
                    "type": "address"
                },
                {
                    "indexed": false,
                    "internalType": "uint256",
                    "name": "_value",
                    "type": "uint256"
                }
            ],
            "name": "Approval",
            "type": "event"
        },
        {
            "anonymous": false,
            "inputs": [
                {
                    "indexed": true,
                    "internalType": "address",
                    "name": "_from",
                    "type": "address"
                },
                {
                    "indexed": true,
                    "internalType": "address",
                    "name": "_to",
                    "type": "address"
                },
                {
                    "indexed": false,
                    "internalType": "uint256",
                    "name": "_value",
                    "type": "uint256"
                }
            ],
            "name": "Transfer",
            "type": "event"
        },
        {
            "inputs": [
                {
                    "internalType": "address",
                    "name": "",
                    "type": "address"
                },
                {
                    "internalType": "address",
                    "name": "",
                    "type": "address"
                }
            ],
            "name": "allowance",
            "outputs": [
                {
                    "internalType": "uint256",
                    "name": "",
                    "type": "uint256"
                }
            ],
            "stateMutability": "view",
            "type": "function"
        },
        {
            "inputs": [
                {
                    "internalType": "address",
                    "name": "_spender",
                    "type": "address"
                },
                {
                    "internalType": "uint256",
                    "name": "_value",
                    "type": "uint256"
                }
            ],
            "name": "approve",
            "outputs": [
                {
                    "internalType": "bool",
                    "name": "success",
                    "type": "bool"
                }
            ],
            "stateMutability": "nonpayable",
            "type": "function"
        },
        {
            "inputs": [
                {
                    "internalType": "address",
                    "name": "",
                    "type": "address"
                }
            ],
            "name": "balanceOf",
            "outputs": [
                {
                    "internalType": "uint256",
                    "name": "",
                    "type": "uint256"
                }
            ],
            "stateMutability": "view",
            "type": "function"
        },
        {
            "inputs": [],
            "name": "decimals",
            "outputs": [
                {
                    "internalType": "uint8",
                    "name": "",
                    "type": "uint8"
                }
            ],
            "stateMutability": "view",
            "type": "function"
        },
        {
            "inputs": [
                {
                    "internalType": "uint256",
                    "name": "",
                    "type": "uint256"
                }
            ],
            "name": "investors",
            "outputs": [
                {
                    "internalType": "address",
                    "name": "",
                    "type": "address"
                }
            ],
            "stateMutability": "view",
            "type": "function"
        },
        {
            "inputs": [],
            "name": "investorsIndex",
            "outputs": [
                {
                    "internalType": "uint256",
                    "name": "",
                    "type": "uint256"
                }
            ],
            "stateMutability": "view",
            "type": "function"
        },
        {
            "inputs": [],
            "name": "name",
            "outputs": [
                {
                    "internalType": "string",
                    "name": "",
                    "type": "string"
                }
            ],
            "stateMutability": "view",
            "type": "function"
        },
        {
            "inputs": [],
            "name": "returnInvestorsArray",
            "outputs": [
                {
                    "internalType": "address[]",
                    "name": "",
                    "type": "address[]"
                }
            ],
            "stateMutability": "view",
            "type": "function"
        },
        {
            "inputs": [],
            "name": "symbol",
            "outputs": [
                {
                    "internalType": "string",
                    "name": "",
                    "type": "string"
                }
            ],
            "stateMutability": "view",
            "type": "function"
        },
        {
            "inputs": [],
            "name": "totalSupply",
            "outputs": [
                {
                    "internalType": "uint256",
                    "name": "",
                    "type": "uint256"
                }
            ],
            "stateMutability": "view",
            "type": "function"
        },
        {
            "inputs": [
                {
                    "internalType": "address",
                    "name": "_to",
                    "type": "address"
                },
                {
                    "internalType": "uint256",
                    "name": "_value",
                    "type": "uint256"
                }
            ],
            "name": "transfer",
            "outputs": [
                {
                    "internalType": "bool",
                    "name": "success",
                    "type": "bool"
                }
            ],
            "stateMutability": "nonpayable",
            "type": "function"
        },
        {
            "inputs": [
                {
                    "internalType": "address",
                    "name": "_from",
                    "type": "address"
                },
                {
                    "internalType": "address",
                    "name": "_to",
                    "type": "address"
                },
                {
                    "internalType": "uint256",
                    "name": "_value",
                    "type": "uint256"
                }
            ],
            "name": "transferFrom",
            "outputs": [
                {
                    "internalType": "bool",
                    "name": "success",
                    "type": "bool"
                }
            ],
            "stateMutability": "nonpayable",
            "type": "function"
        }
    ],
    "bytecode": "0x60806040526040518060400160405280600d81526020017f54696d654c696e6520636f696e00000000000000000000000000000000000000815250600090805190602001906200005192919062000198565b506040518060400160405280600281526020017f544c000000000000000000000000000000000000000000000000000000000000815250600190805190602001906200009f92919062000198565b506a027b46536c66c8e30000006002556012600360006101000a81548160ff021916908360ff1602179055506001600755348015620000dd57600080fd5b50600254600460003373ffffffffffffffffffffffffffffffffffffffff1673ffffffffffffffffffffffffffffffffffffffff168152602001908152602001600020819055503360066000600754815260200190815260200160002060006101000a81548173ffffffffffffffffffffffffffffffffffffffff021916908373ffffffffffffffffffffffffffffffffffffffff160217905550600760008154809291906200018d9062000288565b919050555062000334565b828054620001a69062000252565b90600052602060002090601f016020900481019282620001ca576000855562000216565b82601f10620001e557805160ff191683800117855562000216565b8280016001018555821562000216579182015b8281111562000215578251825591602001919060010190620001f8565b5b50905062000225919062000229565b5090565b5b80821115620002445760008160009055506001016200022a565b5090565b6000819050919050565b600060028204905060018216806200026b57607f821691505b6020821081141562000282576200028162000305565b5b50919050565b6000620002958262000248565b91507fffffffffffffffffffffffffffffffffffffffffffffffffffffffffffffffff821415620002cb57620002ca620002d6565b5b600182019050919050565b7f4e487b7100000000000000000000000000000000000000000000000000000000600052601160045260246000fd5b7f4e487b7100000000000000000000000000000000000000000000000000000000600052602260045260246000fd5b6112c180620003446000396000f3fe608060405234801561001057600080fd5b50600436106100b45760003560e01c80633feb5f2b116100715780633feb5f2b1461019157806370a08231146101c157806395d89b41146101f15780639a5fb32f1461020f578063a9059cbb1461022d578063dd62ed3e1461025d576100b4565b806306fdde03146100b9578063095ea7b3146100d757806318160ddd1461010757806323b872dd14610125578063313ce567146101555780633f3a2a1914610173575b600080fd5b6100c161028d565b6040516100ce9190610f8a565b60405180910390f35b6100f160048036038101906100ec9190610dd3565b61031b565b6040516100fe9190610f6f565b60405180910390f35b61010f61040d565b60405161011c9190610fac565b60405180910390f35b61013f600480360381019061013a9190610d84565b610413565b60405161014c9190610f6f565b60405180910390f35b61015d6106ab565b60405161016a9190610fc7565b60405180910390f35b61017b6106be565b6040516101889190610f4d565b60405180910390f35b6101ab60048036038101906101a69190610e0f565b610804565b6040516101b89190610f32565b60405180910390f35b6101db60048036038101906101d69190610d1f565b610837565b6040516101e89190610fac565b60405180910390f35b6101f961084f565b6040516102069190610f8a565b60405180910390f35b6102176108dd565b6040516102249190610fac565b60405180910390f35b61024760048036038101906102429190610dd3565b6108e3565b6040516102549190610f6f565b60405180910390f35b61027760048036038101906102729190610d48565b610a55565b6040516102849190610fac565b60405180910390f35b6000805461029a90611173565b80601f01602080910402602001604051908101604052809291908181526020018280546102c690611173565b80156103135780601f106102e857610100808354040283529160200191610313565b820191906000526020600020905b8154815290600101906020018083116102f657829003601f168201915b505050505081565b600081600560003373ffffffffffffffffffffffffffffffffffffffff1673ffffffffffffffffffffffffffffffffffffffff16815260200190815260200160002060008573ffffffffffffffffffffffffffffffffffffffff1673ffffffffffffffffffffffffffffffffffffffff168152602001908152602001600020819055508273ffffffffffffffffffffffffffffffffffffffff163373ffffffffffffffffffffffffffffffffffffffff167f8c5be1e5ebec7d5bd14f71427d1e84f3dd0314c0f7b2291e5b200ac8c7c3b925846040516103fb9190610fac565b60405180910390a36001905092915050565b60025481565b6000600460008573ffffffffffffffffffffffffffffffffffffffff1673ffffffffffffffffffffffffffffffffffffffff1681526020019081526020016000205482111561046157600080fd5b600560008573ffffffffffffffffffffffffffffffffffffffff1673ffffffffffffffffffffffffffffffffffffffff16815260200190815260200160002060003373ffffffffffffffffffffffffffffffffffffffff1673ffffffffffffffffffffffffffffffffffffffff168152602001908152602001600020548211156104ea57600080fd5b81600460008673ffffffffffffffffffffffffffffffffffffffff1673ffffffffffffffffffffffffffffffffffffffff1681526020019081526020016000206000828254610539919061108d565b9250508190555081600460008573ffffffffffffffffffffffffffffffffffffffff1673ffffffffffffffffffffffffffffffffffffffff168152602001908152602001600020600082825461058f9190611037565b9250508190555081600560008673ffffffffffffffffffffffffffffffffffffffff1673ffffffffffffffffffffffffffffffffffffffff16815260200190815260200160002060003373ffffffffffffffffffffffffffffffffffffffff1673ffffffffffffffffffffffffffffffffffffffff1681526020019081526020016000206000828254610622919061108d565b925050819055508273ffffffffffffffffffffffffffffffffffffffff168473ffffffffffffffffffffffffffffffffffffffff167fddf252ad1be2c89b69c2b068fc378daa952ba7f163c4a11628f55a4df523b3ef846040516106869190610fac565b60405180910390a361069784610a7a565b6106a083610ba6565b600190509392505050565b600360009054906101000a900460ff1681565b6060600060075467ffffffffffffffff811115610704577f4e487b7100000000000000000000000000000000000000000000000000000000600052604160045260246000fd5b6040519080825280602002602001820160405280156107325781602001602082028036833780820191505090505b50905060005b6007548110156107fc576006600082815260200190815260200160002060009054906101000a900473ffffffffffffffffffffffffffffffffffffffff168282815181106107af577f4e487b7100000000000000000000000000000000000000000000000000000000600052603260045260246000fd5b602002602001019073ffffffffffffffffffffffffffffffffffffffff16908173ffffffffffffffffffffffffffffffffffffffff168152505080806107f4906111a5565b915050610738565b508091505090565b60066020528060005260406000206000915054906101000a900473ffffffffffffffffffffffffffffffffffffffff1681565b60046020528060005260406000206000915090505481565b6001805461085c90611173565b80601f016020809104026020016040519081016040528092919081815260200182805461088890611173565b80156108d55780601f106108aa576101008083540402835291602001916108d5565b820191906000526020600020905b8154815290600101906020018083116108b857829003601f168201915b505050505081565b60075481565b600081600460003373ffffffffffffffffffffffffffffffffffffffff1673ffffffffffffffffffffffffffffffffffffffff16815260200190815260200160002054101561093157600080fd5b81600460003373ffffffffffffffffffffffffffffffffffffffff1673ffffffffffffffffffffffffffffffffffffffff1681526020019081526020016000206000828254610980919061108d565b9250508190555081600460008573ffffffffffffffffffffffffffffffffffffffff1673ffffffffffffffffffffffffffffffffffffffff16815260200190815260200160002060008282546109d69190611037565b925050819055508273ffffffffffffffffffffffffffffffffffffffff163373ffffffffffffffffffffffffffffffffffffffff167fddf252ad1be2c89b69c2b068fc378daa952ba7f163c4a11628f55a4df523b3ef84604051610a3a9190610fac565b60405180910390a3610a4b83610ba6565b6001905092915050565b6005602052816000526040600020602052806000526040600020600091509150505481565b6000600460008373ffffffffffffffffffffffffffffffffffffffff1673ffffffffffffffffffffffffffffffffffffffff1681526020019081526020016000205411610ba2576000600190505b600754811015610ba0578173ffffffffffffffffffffffffffffffffffffffff166006600083815260200190815260200160002060009054906101000a900473ffffffffffffffffffffffffffffffffffffffff1673ffffffffffffffffffffffffffffffffffffffff161415610b8d576006600082815260200190815260200160002060006101000a81549073ffffffffffffffffffffffffffffffffffffffff021916905560076000815480929190610b8290611149565b919050555050610ba3565b8080610b98906111a5565b915050610ac8565b505b5b50565b6000600460008373ffffffffffffffffffffffffffffffffffffffff1673ffffffffffffffffffffffffffffffffffffffff168152602001908152602001600020541015610bf357600080fd5b6000600190505b600754811015610c84578173ffffffffffffffffffffffffffffffffffffffff166006600083815260200190815260200160002060009054906101000a900473ffffffffffffffffffffffffffffffffffffffff1673ffffffffffffffffffffffffffffffffffffffff161415610c715750610cf2565b8080610c7c906111a5565b915050610bfa565b508060066000600754815260200190815260200160002060006101000a81548173ffffffffffffffffffffffffffffffffffffffff021916908373ffffffffffffffffffffffffffffffffffffffff16021790555060076000815480929190610cec906111a5565b91905055505b50565b600081359050610d048161125d565b92915050565b600081359050610d1981611274565b92915050565b600060208284031215610d3157600080fd5b6000610d3f84828501610cf5565b91505092915050565b60008060408385031215610d5b57600080fd5b6000610d6985828601610cf5565b9250506020610d7a85828601610cf5565b9150509250929050565b600080600060608486031215610d9957600080fd5b6000610da786828701610cf5565b9350506020610db886828701610cf5565b9250506040610dc986828701610d0a565b9150509250925092565b60008060408385031215610de657600080fd5b6000610df485828601610cf5565b9250506020610e0585828601610d0a565b9150509250929050565b600060208284031215610e2157600080fd5b6000610e2f84828501610d0a565b91505092915050565b6000610e448383610e50565b60208301905092915050565b610e59816110c1565b82525050565b610e68816110c1565b82525050565b6000610e7982610ff2565b610e838185611015565b9350610e8e83610fe2565b8060005b83811015610ebf578151610ea68882610e38565b9750610eb183611008565b925050600181019050610e92565b5085935050505092915050565b610ed5816110d3565b82525050565b6000610ee682610ffd565b610ef08185611026565b9350610f00818560208601611116565b610f098161124c565b840191505092915050565b610f1d816110ff565b82525050565b610f2c81611109565b82525050565b6000602082019050610f476000830184610e5f565b92915050565b60006020820190508181036000830152610f678184610e6e565b905092915050565b6000602082019050610f846000830184610ecc565b92915050565b60006020820190508181036000830152610fa48184610edb565b905092915050565b6000602082019050610fc16000830184610f14565b92915050565b6000602082019050610fdc6000830184610f23565b92915050565b6000819050602082019050919050565b600081519050919050565b600081519050919050565b6000602082019050919050565b600082825260208201905092915050565b600082825260208201905092915050565b6000611042826110ff565b915061104d836110ff565b9250827fffffffffffffffffffffffffffffffffffffffffffffffffffffffffffffffff03821115611082576110816111ee565b5b828201905092915050565b6000611098826110ff565b91506110a3836110ff565b9250828210156110b6576110b56111ee565b5b828203905092915050565b60006110cc826110df565b9050919050565b60008115159050919050565b600073ffffffffffffffffffffffffffffffffffffffff82169050919050565b6000819050919050565b600060ff82169050919050565b60005b83811015611134578082015181840152602081019050611119565b83811115611143576000848401525b50505050565b6000611154826110ff565b91506000821415611168576111676111ee565b5b600182039050919050565b6000600282049050600182168061118b57607f821691505b6020821081141561119f5761119e61121d565b5b50919050565b60006111b0826110ff565b91507fffffffffffffffffffffffffffffffffffffffffffffffffffffffffffffffff8214156111e3576111e26111ee565b5b600182019050919050565b7f4e487b7100000000000000000000000000000000000000000000000000000000600052601160045260246000fd5b7f4e487b7100000000000000000000000000000000000000000000000000000000600052602260045260246000fd5b6000601f19601f8301169050919050565b611266816110c1565b811461127157600080fd5b50565b61127d816110ff565b811461128857600080fd5b5056fea26469706673582212204a505d0206fbd9e4d0b68d9ac79ec8822ae2e0b096faf2f653e5a772621eec9464736f6c63430008000033",
    "linkReferences": {},
    "deployedLinkReferences": {}
}